:020000040800F2
:10000000A035002045010008AF5D00087D470008CD
:10001000AB5D00083D0C0008796F0008000000008F
:100020000000000000000000000000002B6200083B
:10003000210E000800000000795E0008756B0008C2
:100040005F0100085F0100085F0100085F01000810
:100050005F0100085F0100085F0100085F01000800
:100060005F0100085F0100085F0100085F010008F0
:100070005F0100085F0100085F0100085F010008E0
:100080005F0100085F0100085F0100085F010008D0
:100090005F0100085F0100085F0100085F010008C0
:1000A0005F0100085F0100085F0100085F010008B0
:1000B0005F010008D96B00085F010008E1470008F4
:1000C000C14700085F0100085F0100085F010008E8
:1000D0005F010008596D00085F0100085F0100081A
:1000E0005F0100085F0100085F0100085F01000870
:1000F0005F0100085F0100085F0100085F01000860
:100100005F0100085F0100085F0100085F0100084F
:100110005F0100085F0100085F0100085F0100083F
:100120005F0100085F0100085F0100085F0100082F
:10013000DFF80CD000F0E0FB004800471DCB0008C2
:10014000A03500200648804706480047FEE7FEE746
:10015000FEE7FEE7FEE7FEE7FEE7FEE7FEE7FEE777
:10016000796B00083101000810B5431A934209D297
:100170008318881803E010F8011D03F8011D521EB2
:10018000F9D210BD40EA01039B0703D009E008C97A
:10019000121F08C0042AFAD203E011F8013B00F84C
:1001A000013B521EF9D210BDD2B201E000F8012B82
:1001B000491EFBD270470022F6E710B513460A46E7
:1001C00004461946FFF7F0FF204610BD421C10F808
:1001D000011B0029FBD1801A704710B5002200E0F6
:1001E000521C835C8C5CA34201D1002BF8D1D8B2A5
:1001F000E1B2401A10BD034611F8012B00F8012BA3
:10020000002AF9D118467047F0B480EA0102D40FF1
:100210004200B2EB410F02D20246084611464A00A4
:1002200042D0C30DDDB2C1F3C752AD1A202D35DA6D
:10023000C1F3160141F4000204B15242C5F1200697
:1002400002FA06F12A411044B3EBD05F23D0C4B1C7
:10025000012DA0EBC35009DCF0BC4FF0004202EAD4
:10026000C352DBB200F5000000F0FBB9400000F122
:10027000807000EBC350A0F1807040EAD17049005B
:1002800009E0490841EAC071A0EBC35000F5000045
:10029000400800EBC350F0BC00F0DAB96142012223
:1002A00002EB4101001BF6E7F0BC704781F0004112
:1002B000AAE780F00040A7E780EA010210B502F04B
:1002C0000043400022D04A001FD0010E01EB126112
:1002D000C0F35600C2F3560240F4000042F400029C
:1002E000A0FB022000047F39140400D0401C50EA17
:1002F000124001D44000491EC2B20C0604EBD010DB
:10030000401C4008802A02D003E0002010BD20F0ED
:100310000100002900DA0020184310BD30B480EA43
:10032000010202F0004530F0004221F0004013D0FD
:1003300090B1C30DD40DC2F31601C0F31600E41A38
:1003400041F4000140F400027D34914201D3641C69
:1003500000E04900002C02DA30BC002070474FF466
:1003600000000023914201D3891A034340084FEA59
:100370004101F7D151B1914202D14FF0004105E066
:1003800002D24FF0010101E06FF0010103EBC45014
:10039000284430BC00F05CB9420005D0C0F3C7521D
:1003A0005242914201DC0020704700EBC15070477F
:1003B0002DE9FE4F81EA030404F0004421F00041DE
:1003C00000944FF0000B23F0004350EA01045ED08C
:1003D00052EA03045BD0C3F30A54C1F30A552C4418
:1003E000A4F2F3340194A0FB0254C1F3130141F4CD
:1003F0008011C3F3130343F4801301FB024400FB99
:10040000034E840A970A44EA815447EA8357A4FBBF
:10041000076802958D0A05FB07854FEA932C04FBBC
:100420000C542705029D4FEA065847EA1637B5EBEC
:1004300008056EEB070C870E920E47EA811742EA19
:100440008312A7FB0201B6EB0B0164EB00042B0D3A
:1004500043EA0C335E1844EB1C50DA465146E7FB86
:100460000201C5F313044FEA0B3343EA14534FEA76
:100470000432019C43EA0603A4F10C040294009C9C
:10048000CDE900B400F02AF903B0BDE8F08F0020F8
:100490000146F9E7C10F80EAE0700844CA079623D5
:1004A000002100F0DEB896230022114600F0D9B8F2
:1004B0000EB5C10F80EAE0700844CA07002140F27F
:1004C00033438DE80E000A460B4600F007F903B0EF
:1004D00000BD0EB540F2334102910021CDE900117B
:1004E0000A460B4600F0FAF803B000BD00F00042E7
:1004F00020F00040C10DC0F3160040F400007F2939
:1005000001DA00207047962903DCC1F19601C8404A
:1005100001E096398840002AF4D04042704720F02C
:100520000040C10DC0F3160040F400007F2901DA3D
:1005300000207047962903DCC1F19601C84070473E
:1005400096398840704770B5C1F30A5201F00045F2
:100550000024C1F3130140F2FF3341F480119A42A9
:1005600001DA002070BD40F233439A42A2F23342D6
:1005700003DC524200F05CF800E090402C43F1D0E4
:10058000404270BDC1F30A5210B5C1F3130140F2ED
:10059000FF3341F480119A4201DA002010BD40F28D
:1005A00033439A42A2F2334203DC524200F040F855
:1005B00010BD904010BD00F0004230F000400AD065
:1005C000C10D01F56071C0F3160042EA0151C20885
:1005D000400711437047002001467047002801DBA7
:1005E000C0F10040002901DBC1F1004181427047A8
:1005F000002801DBC0F10040002901DBC1F100410E
:100600008842704730B50B46014600202022012465
:1006100009E021FA02F59D4205D303FA02F5491BD0
:1006200004FA02F52844151EA2F10102F1DC30BDE6
:10063000202A04DB203A21FA02F00021704721FA37
:1006400002F3D040C2F1200291400843194670479E
:100650000029A8BF7047401C490008BF20F00100D6
:10066000704710B4B0FA80FC00FA0CF050EA0104B4
:1006700004BF10BC704749B1CCF1200421FA04F446
:1006800011FA0CF118BF012121430843A3EB0C011F
:10069000CB1D4FEA00614FEA102042BF002010BC82
:1006A000704700EBC35010440029A4BF10BC704732
:1006B000401C490008BF20F0010010BC704710B575
:1006C000141E73F1000408DA401C41F10001921875
:1006D0005B411A4301D120F0010010BD2DE9F04D1E
:1006E00092469B4611B1B1FA81F202E0B0FA80F273
:1006F0002032904600F012F904460F4640EA0A0004
:1007000041EA0B0153465A46084313D0114653EAB7
:10071000010019D0C8F140025046FFF789FF054695
:100720000E4650465946424600F0F8F8084305D0B8
:10073000012004E020463946BDE8F08D0020054345
:1007400046EAE0762C4337430A986305E40AA0EBB7
:1007500008000022FD0A44EA47540A3002D500206E
:100760000146E9E7010510196941DDE9084500196D
:100770006941BDE8F04DA2E72DE9FE4F804681EAD0
:100780000300C00F0C46009021F0004123F000450B
:10079000B8EB0200A94105D24046214690461C46CE
:1007A0000B46024623F00040104347D0270DC7F305
:1007B0000A00C3F30A510290401A019040286BDAF4
:1007C000C3F3130040F4801B0098924620B100232D
:1007D000D2EB030A63EB0B0B01985946C0F14002C0
:1007E000504600F09BF806460D4650465946019A81
:1007F00000F0A3F810EB08006141002487EA1152D1
:1008000084EAE7731A4340D0009A62B3019A012A3E
:100810004FEA075215DC001B61EB02014FF000426A
:1008200002EA0752CDE90042001C41F58011324630
:100830002B46FFF753FF03B0BDE8F08F404621463B
:10084000F9E7001B61EB0201001C41F58013001861
:100850005B412018A2F5001747EB030140EAD57071
:10086000B6196D4111E06D084FEA360645EAC075CC
:100870004FEA0752001B61EB0201001C41F5801199
:1008800049084FEA30000019514132462B4603B067
:10089000BDE8F04FFFF713BF00980122400000238E
:1008A000D0EB020263EBE073009821464FEAE0745C
:1008B000B8EB000061EB0401E9E783F000435BE77C
:1008C00081F0004158E7000030B5041E71F10004CA
:1008D00004DB4FF00044404264EB0101141E73F14D
:1008E000000405DB1C464FF00043524263EB040357
:1008F000994208BF904230BD064C074D06E0E068C3
:1009000040F0010394E8070098471034AC42F6D356
:10091000FFF712FC3843010858430108202A04DB82
:10092000203A00FA02F1002070479140C2F1200302
:1009300020FA03F3194390407047202A06DBCB17B7
:10094000203A41FA02F043EAE07306E041FA02F38A
:10095000D040C2F12002914008431946704770B55B
:100960008C1810F8015B15F0070301D110F8013B5A
:100970002A1106D110F8012B03E010F8016B01F8E1
:10098000016B5B1EF9D12B0705D40023521E0DD439
:1009900001F8013BFAE710F8013BCB1A921C03E087
:1009A00013F8015B01F8015B521EF9D5A142D8D3BF
:1009B000002070BD21B1826842F00102826003E034
:1009C000826822F0010282607047000010B5044680
:1009D0001248844208D10121401505F08BFA00210C
:1009E000601505F087FA17E00D48844208D101210F
:1009F000001505F07FFA0021201505F07BFA0BE0C9
:100A00000848844208D10121C80305F073FA002187
:100A10004FF4004005F06EFA10BD000000240140C4
:100A200000280140003C0140014600208A6802F095
:100A300004020AB1012000E0002070470146C86CA2
:100A400080B270470246002013680B400BB10120B2
:100A500000E000207047014600208A6802F008028A
:100A60000AB1012000E000207047000030B50246C6
:100A70000020002350680F4C20400D790C6844EA98
:100A800005242043506090680B4C2040D1E902546B
:100A90002C434D7944EA450420439060D06A20F409
:100AA00070000C7C641EE4B2234340EA0350D06221
:100AB00030BD0000FFFEF0FFFDF7F1FFF0B504468A
:100AC0000D4600200021092D11DDE068A5F10A0680
:100AD00006EB4607072606FA07F18843A5F10A0642
:100AE00006EB460603FA06F10843E0600CE02069D5
:100AF00005EB4507072606FA07F1884305EB45068F
:100B000003FA06F108432061072A0FDA606B561ECC
:100B100006EB86071F2606FA07F18843561E06EBEA
:100B2000860605FA06F10843606322E00D2A0FDA13
:100B3000206BD61F06EB86071F2606FA07F18843AF
:100B4000D61F06EB860605FA06F10843206310E07F
:100B5000E06AA2F10D0606EB86071F2606FA07F1EA
:100B60008843A2F10D0606EB860605FA06F1084356
:100B7000E062F0BD816841F008018160704721B1F9
:100B8000826842F4A002826003E0826822F4A0023C
:100B900082607047816841F00401816070470028DD
:100BA00000DC40427047000000B587B001214FF4DF
:100BB000017005F08FF94FF4004005F05FF9042053
:100BC000ADF8040000208DF8070001A9194800F0D5
:100BD00043FE1948FFF7FAFE002002908DF80C0042
:100BE0008DF80D004FF46020049000200590012046
:100BF0008DF8180002A91048FFF738FF01210E48B0
:100C0000FFF7D8FE0C48FFF7B5FF00BF0A48FFF713
:100C100022FF0028FAD10848FFF7BCFF00BF0648B2
:100C2000FFF702FF0028FAD101210348FFF7A7FFD1
:100C300007B000BD000801400024014000BFFEE7EE
:100C40000A480B490068038990F8702053430B80D1
:100C5000438953434B8083895B1C53435B1E8B80CA
:100C6000C089401C5043401EC880704714020020B9
:100C7000E801002021B1026842F00102026004E0B4
:100C800002684FF6FE731A400260704701684FF623
:100C9000FE72114001600021016041608160C1600D
:100CA0004B49884208D14A490839496841F00F0147
:100CB000474A083A51608AE045491431884208D1D0
:100CC00043490839496841F0F001414A083A516006
:100CD0007DE03F492831884208D13D4908394968BB
:100CE00041F470613A4A083A516070E038493C3149
:100CF000884208D136490839496841F47041344A7C
:100D0000083A516063E032495031884208D1304995
:100D10000839496841F470212D4A083A516056E07B
:100D20002B496431884208D129490839496841F47E
:100D30007001274A083A516049E0254978318842D4
:100D400008D123490839496841F07061204A083ABE
:100D500051603CE01F49884206D1011F096841F0FB
:100D60000F01021F116032E01A491431884208D184
:100D70001849091F096841F0F001164A121F116055
:100D800025E014492831884208D11249091F096811
:100D900041F470610F4A121F116018E00D493C3197
:100DA000884208D10B49091F096841F47041094A7A
:100DB000121F11600BE007495031884207D10549E5
:100DC000091F096841F47021024A121F116070471F
:100DD00008000240080402400146486880B270479B
:100DE00010B50022026847F6F0739A430C6A8B68CC
:100DF00023430C6923434C6923438C692343CC6907
:100E000023434C6A23438C6A23431A430260CB6812
:100E100043600B6883604B68C36010BD41607047DE
:100E2000704700002DE9FC5F15460746DFF89C80FF
:100E300028440190D8F800001C460E46C06E01EB15
:100E400004094946426801989047781B0090D8F8F9
:100E500000004946C06E426800989047D8F80000EC
:100E600006EB050B07EB0409C06E5946426848467D
:100E70009047D8F80000A6EB050A5146C06E4268BC
:100E800048469047002C1ED0D8F80000361B454637
:100E9000C06E314642680198904728683146C06E5E
:100EA00042680098904728683C1B5946C06E4268CB
:100EB0002046904728685146C06E426802B02046DE
:100EC000BDE8F05F1047BDE8FC9F00001402002061
:100ED00010B50BF077FD084908600846006808B9AE
:100EE000002010BD054806490860064848600648CD
:100EF00088600846F5E700009C01002055C1000805
:100F0000082D0020A5BF0008CDBF00082DE9FF5F18
:100F10008346DDE90E45984691468A4604F5B47449
:100F200005F5B4754FF0FF3601274FF4B47003E0B8
:100F3000A4F5B474A5F5B4758442F9DA002D65DD25
:100F40005A2C11DA002C00DA00245A2D01DA284636
:100F500000E05A20CDE90040CDE9027643464A46FA
:100F60005146584607F0E8FB5A3D5A3C002D4DDDEE
:100F70005A2C14DA002C00DA00245A2D01DA284603
:100F800000E05A20C4F15A01C0F15A008DE8430034
:100F900043464A4651465846039607F0CDFB5A3D14
:100FA0005A3C002D32DD5A2C12DA002C00DA0024D3
:100FB0005A2D01DA284600E05A200DF1040C009465
:100FC000ACE8C10043464A465146584607F0B4FBD8
:100FD0005A3D5A3C002D19DD5A2C14DA002C00DA47
:100FE00000245A2D01DA284600E05A20C4F15A01A3
:100FF000C0F15A008DE8830043464A4651465846A0
:10100000039707F099FB5A3D5A3C97E7BDE8FF9FCD
:101010002DE9F0478146884640F2C32050434FF403
:101020007A7190FBF1F502FB02F002EBD27100EB5A
:1010300061066D1C1746002341464846FFF7F2FE45
:10104000012413E004FB04F007FB0700B04206DDB7
:101050003B46224641464846FFF7E4FE7F1E3B469C
:10106000224641464846FFF7DDFE641CAC42E9DDFE
:10107000BDE8F0872DE9FF4F89B0064616981F4658
:10108000111A491C181A00F1010903FB07F0079017
:1010900009FB09F00690002002FB02F801FB01FBAE
:1010A000144601900125009047E000BF0A9805FB17
:1010B00005FA401B401C05900A9807992844401ED9
:1010C00004900AFB08F0B0FBF1F1A8EB010003F07B
:1010D000DDFAA04200D0641E311B03913119044691
:1010E00002914D450DDA06990AFB0BF0B0FBF1F1C8
:1010F000ABEB010003F0CAFA311A3044CDE900101D
:1011000004E003D1A6F10100CDE90006DDE901020A
:10111000059903F049FF009A0599039803F044FFED
:10112000012D09DDDDE90301009A03F03DFFDDE952
:101130000102049903F038FF6D1CBD42B6DD0DB00D
:10114000BDE8F08F1CB50024019401AC009400F0C0
:10115000E7F81CBD2DE9FF4F83B0814606988A460B
:10116000A0EB0A08109E00200090A2EB090435684D
:10117000934654EA080018D02046FFF710FD0746B2
:101180004046FFF70CFD87420BDA20464446804676
:101190004846D14682465846DDF818B006900120F0
:1011A0000090002C07DD204606E007B04846BDE869
:1011B000F04F00F057B96042A0420AD04846D946E5
:1011C0006442C8F1000883464FF0FF37DDF818A0ED
:1011D00000E001275148B8F1000F11D004EBD471A1
:1011E0004FEA610B01DACBF1000B4C480068807EBE
:1011F00088B3002F02DA30682044306000257BE09D
:1012000000990029016821D0897E11B1002780460C
:1012100015E007B05A4649465046BDE8F04F03F086
:1012200023BF28466D1C09F0E7FE38B9D8F8000046
:1012300009EB0701C06E4268504690477F1CA742E9
:10124000EFDD6D1E356007B0BDE8F08F8A7E1AB104
:101250000027804617E019E0C86E5A4651460368D9
:1012600007B04846BDE8F04F184728466D1C09F006
:10127000C3FE38B9D8F8001009EB0700C96E4A68F8
:10128000514690477F1CA742EFDDDAE700250FE0CB
:1012900008FB05B090FBF4F101EB0A00009951B195
:1012A0001E4A09EB05011268D26E526890476D1C08
:1012B000A542EDDDC7E7194909EB05030968C96EC9
:1012C0004A6801461846F1E708FB05B090FBF4F1C7
:1012D00001EB0A00019030683844306009F08CFE60
:1012E00048B9009890B10D4809EB05010068C06E3F
:1012F0004268019890476D1CA542E5DD3068002FDB
:1013000001DA20443060C01B30609CE7034909EBE0
:1013100005000968C96E4A680199EBE714020020CC
:101320002DE9FF470F4640491646804609680C984C
:101330001D460A7E012A1CD0A8EB0600791B50EA44
:1013400001031CD0A2F101090AF0B8FD00F580608C
:10135000824603F0A8F900FB09F4504603F0A8F90F
:1013600000FB09F1002C0CDAC4F500708012404239
:101370000AE00090324639464046FFF7EBFEBDE8F2
:10138000FF8704F50074A012002904DAC1F500718A
:1013900089124C4202E001F500718C12002804DD34
:1013A000411C01EBD171491003E000EBD0714910F1
:1013B000401E00EBD0704210002C04DD601C00EBDE
:1013C000D070401003E004EBD4704010641E04EBB6
:1013D000D47308EB0104ADF800403C18ADF80240AE
:1013E000A8EB02045B10B21AADF80440ADF8082077
:1013F0003144FC1AEA1AADF80C102844ADF80A2062
:10140000ADF80E000023ADF806401A4604216846E8
:1014100000F00AF93946404608F0A6FB2946304656
:1014200008F0A2FBABE700001402002008B5002280
:1014300000926A4600F002F808BD0000F8B5084EB8
:101440000546009230680C462346B0F92810B0F9E2
:1014500026002A46FFF764FF3068C5840485F8BD7E
:1014600014020020064A13681A7E012A05D0521E73
:1014700002EBD272521000F039B8DA6E526810479F
:10148000140200202DE9F041054604469046B0F9CB
:1014900002001E460F46B4F90020811902EB080035
:1014A00000F0B2F909E0241DB4F90200B4F90020FB
:1014B000811902EB0800FFF7B9FF7F1E002FF2DC55
:1014C000B4F90010B5F90000814205D1B4F9021059
:1014D000B5F90220914207D0B5F9021040443144D9
:1014E000BDE8F041FFF7A2BFBDE8F0812DE9F05F54
:1014F0000646884640F2C32050434FF47A7190FB71
:10150000F1F702FB02F002EBD27100EB610B25490F
:1015100014467F1C09683244301BC96E0B68414673
:10152000984701253AE000BF05FB05F004FB0401E4
:1015300059451CDDBC4219DD1A4B06EB050AA6EB2A
:1015400005091B68AAF1010208EB0401DB6E09F131
:1015500001001B689847134BAAF10102A8EB040194
:101560001B6809F10100DB6E1B689847641E0D487B
:1015700006EB040AA6EB0409006808EB05015246D5
:10158000C06E0368484698470648A8EB05015246D6
:101590000068C06E0368484698476D1CBD42C3DDB5
:1015A000BDE8F09F140200202DE9FE4F98468B46BF
:1015B000074603FB08FA02FB02F6144601252EE05B
:1015C00005FB05F07043B0FBFAF0301A03F05EF84B
:1015D000A04200D0641E391B029139190446ABEBBE
:1015E000050000F101090BEB0500401ECDE90001EB
:1015F0000A464946384603F0D7FC7A1E4946029807
:1016000003F0D2FC012D09DD7A1E0099029803F047
:10161000CBFCDDE90012384603F0C6FC6D1C4545E5
:10162000CEDDBDE8FE8F00002DE9FF4F40F6FF74D0
:101630000F46664283B09B46814600210BE000BF07
:1016400009EB8100B0F90200A04200DA0446B04282
:1016500000DD0646491CB942F2DB68480068406973
:1016600000280DD0B0F906101A46A1EB0B01B142CB
:1016700000DA0E46B0F90200801AA04200DD0446EE
:10168000B5E0DFF87CA100200546CAF8000089E03B
:10169000781E854201DA6B1C00E0002309EB850C03
:1016A00009EB8302BCF90200B2F90210A04245D155
:1016B000A14215D139F92330059A39F9251003EBE8
:1016C000020C4E4A05981268084404EB0B01D26ED6
:1016D0006045136801DA62462BE00246604628E066
:1016E0002846A4464FF000087A1E0BE008B1401EC1
:1016F00000E0781E09EB8003B3F90230634504D1A2
:1017000008F101089045F1DB2346A34249D0A3EB41
:10171000040239F92500A1EB040C059B92EA0C02A6
:1017200009D4364A184404EB0B011268D26E1368D0
:101730000246984735E006F081FD32E0A14230D004
:1017400001DBA04203DDA0422BDBA14229DCE04605
:1017500088420ADC0346A04223DC0846A14220DB83
:10176000B8F900C0B2F9001008E00B46A14218DC3D
:10177000A04216DBB2F900C0B8F90010E21AA1EBE2
:101780000C0151430029A0EB030202DD01EB6201D1
:1017900002E0A1EB6201491CC01A91FBF0F0604429
:1017A000C9E76D1CBD42FFF673AF0598009004EBCE
:1017B0000B00019000208046054613E01149B8F166
:1017C000000F31F915A009D0009901EB0A02084475
:1017D0000A490968C96E0B680199984788F00108A1
:1017E00050466D1C064909688D42E7DB641CB44213
:1017F0007FF747AF07B0BDE8F08F0000140200206C
:1018000048020020CC2E0020024A1268D0841185A4
:10181000704700001402002010B5002001F0E0FE27
:101820006FF07F4001F0DEFE012001F013FF002089
:1018300001F018FF002001F01FFF002001F0DAFE88
:101840000448006801F0D8FEBDE81040002001F017
:10185000DDBE0000100200202DE9F0410246002507
:101860000026002000230024002791F803C00CF07C
:101870000F0591F803C00CF0100CBCF1000F03D061
:1018800091F802C04CEA050591F800C0BCF1000FC8
:1018900031D0146800202BE04FF0010C0CFA00F35B
:1018A000B1F800C00CEA03069E4220D183004FF03D
:1018B0000F0C0CFA03F7BC4305FA03FC4CEA0404D2
:1018C00091F803C0BCF1280F06D14FF0010C0CFABF
:1018D00000FCC2F814C00AE091F803C0BCF1480F44
:1018E00005D14FF0010C0CFA00FCC2F810C0401CEE
:1018F0000828D1D31460B1F800C0BCF1FF0F34DD6B
:10190000546800202EE000F1080C4FF0010808FA9E
:101910000CF3B1F800C00CEA03069E4221D183000B
:101920004FF00F0C0CFA03F7BC4305FA03FC4CEA2A
:10193000040491F803C0BCF1280F05D100F1080C94
:1019400008FA0CF8C2F8148091F803C0BCF1480FF3
:1019500007D100F1080C4FF0010808FA0CF8C2F8A2
:101960001080401C0828CED35460BDE8F0810246A8
:10197000002093680B400BB1012000E0002070476D
:1019800041617047016170472DE9F04FDFF828B1E0
:1019900091B04FF0FF35DBF80030B3F9221006911B
:1019A000DE69B3F924A0F469A189814206D8E289ED
:1019B000824203D3471AD4F8008012E0D4E90181AF
:1019C000002970D00A8882426DD84D8885426AD33A
:1019D000801A82B2486800EB8200B0F90070B0F95A
:1019E0000250781C5FD0307EA27C014600FB02F9D9
:1019F000207CCDE90810B3F92A60304603F098FF47
:101A0000C0B20E90DBF8001007FB0980A37C8A6B44
:101A10000127CDE90402CDE90273C869DDE9083286
:101A2000C17E807ECDE900015146069803F0B8F9E9
:101A3000681C18D046F0020003F07AFFDBF80000C3
:101A4000A37C05FB0981826BCDE90273CDE9041209
:101A5000C069DDE90832C17E807ECDE900015146D2
:101A6000069803F09DF9DBF800005D46C069417EF1
:101A7000007E814214D9022E12D086F0040003F0B9
:101A800057FF2868C069027EC37E857E02FB03A1E2
:101A9000437E099A0698534402FB050203F00EFBAD
:101AA0000E9803F045FFDBF80000627C418C114486
:101AB000418411B0BDE8F08F140200200448006892
:101AC000C069C06909B1027C0A60407C70470000AF
:101AD00014020020022008807047C06982898A426F
:101AE00002D8C2898A4210D2806880B102888A42B4
:101AF0000DD843888B420AD3406800EB8100A0EBED
:101B00008200B0F90000002801DB012070470020AE
:101B1000704700002DE9F0432F4C034687B0206842
:101B20001946B0F92A80C069C06900F082F800281F
:101B30004ED041680088181A01EBC0054046AE78C7
:101B400003F0F6FE814620686A680123816BCDE9C7
:101B50000236CDE90421C169CB7E8A7ECDE900231E
:101B60000B7EB0F924102A78B0F9220003F018F99E
:101B70002068C069477E067EB7421DD9C07E4743B4
:101B80004643B8F1020F17D001F030F8804601F05B
:101B900015F801F027FD21682A78CB69B1F92200F8
:101BA000B1F92410DB7E02FB0302CB19314403F0B0
:101BB00085FA404601F016FD484603F0B9FE20685C
:101BC0006A78C369B0F922109B7E02FB031141843D
:101BD00007B0BDE8F08300001402002030B50E4CC1
:101BE00005460B4620682946C069C06900F021F807
:101BF000002810D04168008824682A1A0120E4696E
:101C000000EBC200085CA47E6043002B03D011F8F7
:101C100032106143196030BD140200200120088099
:101C2000704700B5C06900F004F8002800D001201A
:101C300000BD06E002888A4202D842888A4202D267
:101C400080680028F6D170472DE9FE4305460C4612
:101C500090460B2D6FD2DFE805F006070E11181C19
:101C60006F7C8A9AA500A9E02678564951F826008B
:101C700001F0B6FCA2E000F041FB9FE0267852495B
:101C800051F8260001F0B6FC98E0207801F0E2FC63
:101C900094E0207830B1012815D0022824D0032800
:101CA00048D134E06679A779464850F8270045497D
:101CB00051F82610CDE900102379E278A1786078F8
:101CC00000F09EFD00BF6679A7793E4850F82700D6
:101CD0003C4951F82610CDE900102379E278A1782B
:101CE000607800F02FFE00BFA779E679354850F8FC
:101CF0002600344951F827106279CDE9002102907D
:101D00002379E278A178607800F0AEFD00BFA77972
:101D1000E6792C4850F826002A4951F827106279B4
:101D2000CDE9002102902379E278A178607800F073
:101D3000D3FD00BF42E040E02678244911F8260098
:101D400001F064FC2379E278A178607800F02EFE3F
:101D500034E0207828B1E278A178607800F0A6FE1F
:101D600004E0E278A178607800F0E0FC26E02078DA
:101D700030B12379E278A178607800F0AFFE05E019
:101D80002379E278A178607800F0F4FC16E06079BD
:101D90002179CDE90010E378A2786178207800F00D
:101DA000A5FC0BE000212079CDE90001E378A278C1
:101DB0006178207800F016FE00E000BF00BFBDE8AB
:101DC000FE83000048E30008DCE30008E8E30008C5
:101DD00010B508F09DFB0448016A04480068C1661C
:101DE00000F10801416110BDBC0100201402002077
:101DF0002DE9FE4F05460C9C0E464FEA4400A2EB2F
:101E0000050198461746091A61D4A8EB0601081A7D
:101E10005DD4DFF8C0A04FF00009DAF8000090F8B8
:101E2000711019B910F8709F0421017005F028FE97
:101E3000054405F033FE064405F022FE074405F094
:101E40002DFEDAF8002000EB080192F8710030B99D
:101E500092F870004543464347434143444392F858
:101E600070007F1E00EB07084718761E284600F01A
:101E700033F8ADF80400404600F02EF8ADF8080045
:101E8000304600F029F8ADF80600384600F024F896
:101E9000ADF80A0001A805F02DFE0EE041462846E7
:101EA00000F06EF83B46424631462846009408F062
:101EB0004DF9FFF78DFF05F0C3FD0028EED1DAF8EC
:101EC000000090F87110002901D180F87090BDE8F1
:101ED000FE8F0000140200200449096891F8701078
:101EE00009B190FBF1F000B270470000140200202D
:101EF0002DE9F0411E4C05460E462068002768B9C2
:101F000003F083F9E06100F097F8206068B304F112
:101F1000240118480860084602F006FB002D00DA8C
:101F20000025E169731B4A1E2046934201DD6E18AD
:101F3000761EAE4201DA2E4601270F4C2268D16E82
:101F40004B68836301620A490C4B34310B60D166E4
:101F500002C862C006F06CFAFEF772FE04482168FF
:101F60002C3048613846BDE8F0810127D6E70000F3
:101F7000BC0100205DAB000814020020859A000817
:101F8000044A126892F8702090FBF2F091FBF2F193
:101F9000FFF7AEBF140200200249096881F8700003
:101FA000FEF74EBE14020020002801D006F09EB9B4
:101FB000704738B50546FFF7F7FF040009D000F079
:101FC000AFF82A460021009002F03AFB684600F084
:101FD000D7F8204638BD0000024A106021F0030007
:101FE00050607047482E002010B5002814D00446D9
:101FF0000A48006B10F8341000290DD002290BD2CA
:10200000042101EBC4014158486806F033F9204629
:10201000BDE8104008F0DABE10BD00008C2D002095
:10202000002805D0034A916B016001B148609063BC
:10203000704700008C2D00202DE9F041044608F087
:10204000AFFC2648E41C24F00305C16B2D1DA942FA
:1020500000D90D46846B13E054F8042CAA420ED12B
:1020600084B1216809B162684A60616809B1226877
:102070000A60826BA2422ED1216881632BE0246822
:10208000002CE9D18046416B80680F1857F8040C8A
:102090003E1A306838B1002008F0F2FE57F8040C00
:1020A0003E1A3068B8B97068A84214DB3044441B4B
:1020B000304608F09DFED8F80810491BC8F80810F3
:1020C000D8F810102944C8F8101070683146401B29
:1020D00006F0D0F820C42046BDE8F0818C2D002009
:1020E00010B5002408F05CFC0C490F2001EBC00285
:1020F000126C1AB101EBC000006C08E0401EF5D56F
:1021000008E04168A14200D90C46806810B180689F
:102110000028F6D1A4F10C0010BD00008C2D002089
:1021200005498A69521C8A61096B01EBC0010A7872
:10213000521C0A7000F03CB88C2D002010B5FFF73F
:10214000CFFF64220649B0F5800F04D990FBF2F06E
:10215000C969484310BDC9694143B1FBF2F010BDE4
:102160008C2D00200549102805D94A68B0EB520F84
:1021700002D3500800E0102088607047482E0020ED
:102180000A4902680B6B52F8082C03EBC202137861
:10219000022B03D38B690BB15B1E8B611178491E37
:1021A0001170002101600846704700008C2D00204E
:1021B000002806D00349042202EBC000096B08582E
:1021C000083070478C2D002010B513685C1814601F
:1021D0000022227005E000BF00F0010230325A54A4
:1021E00040080A00A1F10101C9B2F5D110BD0000FB
:1021F000F0B52D271C68B0F1004F08D0002500284D
:102200000DDA661C1E6027704042012408E0661C3F
:1022100001251E606FF000402770491E01E0002478
:10222000091BC9B22AB3491EC9B222E00C46491E95
:10223000C9B2944205D1124C27781C68661C1E60F6
:102240002770104C54F8216090FBF6F4E4B20A2C8D
:1022500011D804FB160011B90DB1641CE4B20A2CAC
:1022600002D10124491CC9B21E683034771C1F609A
:1022700034700029DAD1196800200870F0BD000020
:10228000080200202041010810B5136808290FD862
:102290005C18146000222270064A04E000F00F046B
:1022A0000009145D5C540C00A1F10101C9B2F5D123
:1022B00010BD00004841010810B5C2B2CBB2D21A1D
:1022C00002D5C2F1000212B293B2C0F30722C1F3E9
:1022D000072403FB03F3121B01D5524212B2000C78
:1022E00092B2A0EB114002FB023200B2002801DAE8
:1022F000404200B280B200FB002010BD10B50021AA
:10230000084600F0B3FC40F6FF725042BDE81040B2
:1023100013460146AFF300802DE9FC4107461C46F9
:1023200015460E46042003F003FB80461148C068A2
:10233000C16C006D0F4406440D440444ADF80070B8
:10234000ADF80450ADF80260ADF80640684605F0FF
:10235000D1FB07E023462A463146384602F0AEFE5E
:1023600005F06EFB0028F5D1404603F0E1FABDE828
:10237000FC8100000802002070B505460C46164698
:1023800015B1012D14D103E0207801F08FF90FE091
:1023900020780849087008460078012802D1FFF724
:1023A000ADFF04E00020044908600449087000BF44
:1023B00000BF70BD150000200400002010000020A8
:1023C0002DE9F0411C4616460D460746022B02DB5E
:1023D0000020BDE8F0811C20FFF72EFE0028F8D079
:1023E0000DB105610AE0094A52F8241009B905E067
:1023F00011460A68002AFBD109690161846186825D
:10240000002101604160C0E90217E2E72C020020D0
:1024100070B51D46FFF7D4FF040001D000F00EF8A0
:10242000E068006820B90348006800EB8500846517
:10243000204670BD14020020FFF7F2BD70B590B3C6
:102440008269022A30DA1C4C54F8221019B944F877
:1024500022002FE019464B68002BFBD106E0CB6829
:10246000C5681B682D68AB4203DD09680029F6D1F9
:102470001AE0C1B1CB68C6681B683668B3420CD19C
:10248000838A012B05D008E01946DB681B68AB4244
:1024900003DB0B68002BF7D129B14B6833B118600F
:1024A0004A68426004E0FFE7012070BD44F8220062
:1024B00048600160002070BD2C02002009F010B8B7
:1024C000022801DB00207047054951F8200004E094
:1024D000C16809680029F6D000680028F8D1704763
:1024E0002C02002070B5044601F012FB051908E02B
:1024F00000F0C2FA052C01DD052000E0204601F0C5
:10250000F9FA01F005FB2C1A002CF1DC70BD30B596
:102510008BB014460D46CDF824D009AA1946FFF712
:1025200053FE22462946684600F0D0F80BB030BD75
:1025300010B500F073FB08490A68B2F92410091AB3
:10254000D069437E481E0344B2F92200BDE8104022
:102550004FF47A62FFF7E0BE14020020002200F080
:1025600011B87FB51E4614460D46CDF80CD003AB0E
:1025700000223146FFF73CFE22462946684600F01D
:10258000A5F87FBD1FB503ABCDF80CD0FFF730FE2B
:10259000684600F01BF81FBD1FB503AACDF80CD08C
:1025A000FFF772FE684600F011F81FBD7FB51446B4
:1025B0000D46CDF80CD003AA1946FFF765FE22465A
:1025C0002946684600F082F87FBD00002DE9FC47EF
:1025D00006005BD000F012FB3B4C81462068B0F94E
:1025E000228000F01BFB216807468A8CD01B888460
:1025F00041E000BF47F6FF71304601F063FE8246BE
:102600000146304601F034FE2168054691F82C0061
:1026100000F0030001283FD0022839D000204A8C66
:10262000101A4884ADF800006A1E1044ADF804008A
:10263000888CADF80200A9F101010844ADF806004C
:102640006A465146304601F0F5FB2168BDF80200AC
:1026500088845146304601F01FF9064430780A2834
:102660001CD00D281AD0BDF80000216828444884E9
:10267000307818B1761C30780028BBD12068818C66
:1026800039448184818D21F003018185BDE8FC8777
:1026900005EBD5704010C2E72846C0E7206890F8E7
:1026A0002C1001F0030101290BD0022909D0018C63
:1026B000418431780A29DBD1828C02EB09018184C3
:1026C000D6E7A0F82280F4E714020020024B1B6832
:1026D00059849A84FFF77ABF1402002010B5FFF7DF
:1026E000F5FFBDE81040FFF723BF00002DE9FC47D0
:1026F00091460D4A9846DDE90A761268D36C1D189A
:10270000106D4418002005F0F5F909E0CDE90076D8
:1027100043464A4621462846FEF7F8FB05F090F965
:102720000028F3D1BDE8FC87140200207CB51446D4
:102730000F4A1268D36C1E18106D4518301BADF887
:1027400000003019ADF80400281BADF8020028196C
:10275000ADF80600684605F0CDF906E022462946A8
:102760003046FEF755FC05F06BF90028F6D17CBD2C
:10277000140200202DE9FE431E46154689460746F1
:1027800000F046FA0446401C05EB500506EB5006E7
:10279000A54231DBA6422FDB18480168C86C096DE1
:1027A00000EB0708A8EB0500ADF8040008EB0500F6
:1027B00001EB0907ADF80800B81BADF80600B81921
:1027C000ADF80A0001A805F095F913E0AC4201D07C
:1027D000B44206D133462A4639464046FEF7E4FE67
:1027E00006E033462A46394640460094FEF742FC4E
:1027F00005F026F90028E9D1BDE8FE831402002087
:102800002DE9F04F0C46164987B00D68DDE91098A8
:10281000E96C0F18286D8D180619C418ADF81070E2
:10282000ADF81450ADF81260ADF8164004A805F0EC
:1028300061F9002811D0DFF82CB04FF0000ACDE983
:102840000098CDE902BA2B4622463946304606F0BA
:10285000CDFF05F0F5F80028F1D107B0BDE8F08F05
:1028600014020020695000082DE9F04F0C46184969
:1028700087B00D68DDE91198E96CDDF840A00F180C
:10288000286D8D180619C418ADF81470ADF81850DD
:10289000ADF81660ADF81A4005A805F02BF9002830
:1028A00012D04FF0000B0B49CDE900A9CDE9028110
:1028B0002B462246CDF810B03946304607F053F883
:1028C00005F0BEF80028EED107B0BDE8F08F00009B
:1028D00014020020695000082DE9F04F174C87B012
:1028E0002568DDE91198EC6CDDF840A02718286D0B
:1028F000A5184618C418ADF81470ADF81850ADF806
:102900001660ADF81A4005A805F0F4F8002812D0BA
:102910004FF0010B0A49CDE900A9CDE90281234618
:102920002A46CDF810B03146384607F01CF805F0BD
:1029300087F80028EED107B0BDE8F08F1402002020
:10294000A94F00082DE9F04F164C87B02568DDE946
:102950001098EC6C2718286DA5184618C418ADF807
:102960001070ADF81450ADF81260ADF8164004A820
:1029700005F0C0F8002811D0DFF82CB04FF0010AA4
:10298000CDE90098CDE902BA23462A4631463846B9
:1029900006F02CFF05F054F80028F1D107B0BDE88F
:1029A000F08F000014020020A94F00082DE9F0412B
:1029B0000B4C2568EC6C2718286DA5184618C41810
:1029C000002005F097F807E023462A4631463846AE
:1029D000FEF7B8FB05F034F80028F5D1BDE8F0812A
:1029E000140200202DE9FC471446144A1D46DDF868
:1029F00028801268D36C1F18106D4618002005F04F
:102A000079F8002817D04FEA540900BF00F000F908
:102A10008246E0B200F01EFECDE900584A464B4621
:102A200031463846FEF772FA504600F013FE05F0C4
:102A300007F80028EAD1BDE8FC8700001402002056
:102A40002DE9F04107460B480E460068C16C006D49
:102A50008D18C418002005F04DF807E023462A46DB
:102A600031463846FEF70EFD04F0EAFF0028F5D1A6
:102A7000BDE8F0811402002010B5002400E001241C
:102A800000F004F80028FAD1204610BD064810B521
:102A90000068002410B1804700B1012404F0F4FC68
:102AA00000B10124204610BD3402002070B5164646
:102AB000094A1268D36C1C18106D4518002005F0E7
:102AC00019F806E0324629462046FEF70FFD04F0CD
:102AD000B7FF0028F6D170BD140200202DE9FC419B
:102AE0001D4614460E46074600F092F8401C04EBC3
:102AF000500405EB500511480068C16C006D0F448F
:102B00000644381BADF800003819ADF80400701BFE
:102B1000ADF802007019ADF80600684604F0EAFF4F
:102B200007E02B46224631463846FEF73DFD04F0CD
:102B300087FF0028F5D1BDE8FC81000014020020C9
:102B40002DE9FC47164C814688462068C16C006D13
:102B50008E18C518002004F0CDFF00281ED0114F9C
:102B600020681121407C57F820000190C068426A1B
:102B700001A890475FEA000C06D03346424649461A
:102B800000950198E04705E02B463246414648460D
:102B9000FEF74AFD04F054FF0028E1D1BDE8FC87B0
:102BA000140200202C020020034951F82000C168C3
:102BB0008A6A0821104700002C02002010B502F09C
:102BC000ADFABDE8104002F05DBB000002490968A3
:102BD000C9694A680021104714020020024A12689D
:102BE000D2695268104700001402002010B502F0AC
:102BF0009DFABDE8104002F045BB000002480068A5
:102C0000C069407E704700001402002001F076BBCE
:102C100001480068007E7047140200200A49002025
:102C2000096891F82C2002F00C02042A07D0082A27
:102C300001D00C2A02D1C869007E40087047C869DB
:102C4000007E401E7047000014020020024951F827
:102C500020000069006870472C020020024951F8EA
:102C600020000069406870472C02002070B50D46B6
:102C700007F0D4FD0446284607F0D8FD204370BD78
:102C8000124810B5016821F00101016010480121CE
:102C900081601049016000680F49884200D0FEE75A
:102CA00001F0A8F80D492E20087000F037FF0C48FD
:102CB00007F028FE09F0CEFC04460021084600F08B
:102CC000ADFC04F033FC204610BD0000002000E005
:102CD00000300240C2A507F4CDB5E8B508020020D7
:102CE000542E00201CB520B90C480068006E002846
:102CF00012D0FFF715FA009044696846FFF740FAD2
:102D0000002C09D02046FFF70BFA019081688968F2
:102D1000884701A8FFF734FA1CBD00001402002008
:102D200001490A4600F002B801F0FFFF2DE9F04327
:102D300087B015460C465FEA000842D0002000F03C
:102D400059FC814620480068066E4046FFF7E8F9C6
:102D500000900068806900F031FC074640F6FF7083
:102D6000001904D10098B0F90440B0F90650009859
:102D7000611E0289ADF804401144ADF80810418984
:102D8000681E0844ADF80650ADF80A0004F0ECF9EE
:102D90006846FFF7F5F901A804F0ACFE06E02A4604
:102DA0002146404600F0F8FA04F04AFE0028F6D129
:102DB000384600F003FC304600F048F9484600F081
:102DC00019FC07B0BDE8F083140200202DE9FE4F86
:102DD000834619488A46194900680C9E9846407CEB
:102DE0009146002751F82040E1680968042903D082
:102DF0002468002CF8D100E014B9FFF761FB044609
:102E00000121E068C26A20469047050011D024697C
:102E1000A0688047401C02D1094C46F0010600968C
:102E2000CDE9015443464A465146584600F09AF9C6
:102E300007463846BDE8FE8F140200202C02002011
:102E40008C41010838B5040018D00D480068006EA8
:102E5000A04201D100F0A8FB2046FFF761F90090E5
:102E6000406908B100F021FE00980068FFF7E4FA1D
:102E70006846FFF785F92046FFF7B6F838BD000031
:102E8000140200202DE9FF4F83B0454CDDF840B01F
:102E900098468A4607002BD002A901A8FFF7B6FE84
:102EA000B7F90060002E00DA0026B7F90250002DB5
:102EB00000DA00252068A146407C02F0A3F90199C0
:102EC0000144491EB7F9040007F0FDFD0446D9F896
:102ED0000000407C02F09CF902990144491EB7F9B8
:102EE000060007F0F0FDA71B7F1C441B641C0BE0D1
:102EF000206800263546407C02F084F907462068A9
:102F0000407C02F085F90446B8F1000F01D1C4F10C
:102F10000008002F01DD002C03DC002007B0BDE815
:102F2000F08F43463A4629463046CDF800B0FFF7C9
:102F30004DFF5FEA000909D000F054F8804648468A
:102F400000F084F80027DFF85CB01FE051460598D8
:102F500088470120E2E7E11B414502DA484600F0DC
:102F60005FF83FB1EA193146484600F099F8484603
:102F7000FFF7B8FE514605988847DBF8001009B105
:102F8000002088474846FFF7CBFE4744A742E2DBD4
:102F90004846FFF757FF002000F058F8BDE7000053
:102FA000140200200803002038B5002460B1FFF7A8
:102FB000B7F80090006800698068804702F0DCFE86
:102FC00004466846FFF7DCF8204638BD38B5FFF701
:102FD000A7F800F1180400906846FFF7D1F82046E2
:102FE00038BD000038B5002418B907480068006EE5
:102FF00038B1FFF795F80090B0F90A406846FFF73E
:10300000BFF8204638BD00001402002010B505F0BE
:10301000AFFA002803D0BDE8104000F06DB810BD35
:1030200038B50C4620B908480068006E00280AD060
:10303000FFF776F80090B0F90A10A14200DD448154
:103040006846FFF79DF838BD14020020F8B5134E0E
:1030500005003068046E0CD00CB100F0A5FA04F045
:1030600071F92846FFF75CF8009031680A6E1AB1D2
:1030700006E000F099FA0EE0D1E90223C1E9192334
:103080000D660068FFF7DAF96846FFF779F802F095
:10309000DBFC02F02DFC2046F8BD000014020020ED
:1030A0007CB515460C4620B912480068006E002811
:1030B0001FD0FFF735F82DB20090C58024B2848070
:1030C00002F016FC0098406980B1FFF729F8009AD9
:1030D0000190B2F908108180B2F90A20C28011B1C2
:1030E0000AB10480458001A8FFF74AF86846FFF757
:1030F00047F87CBD1402002001490A4600F002B8DE
:1031000001F0FFFF7FB515460C46060028D0FFF7FB
:1031100007F840F6FF710190091903D1B0F9044096
:10312000B0F906500289611E1144ADF80840ADF8AF
:103130000C104189681E0844ADF80E00ADF80A5025
:1031400001A8FFF71DF802A804F0D4FC06E02A4607
:103150002146304600F008F904F072FC0028F6D150
:103160007FBD00002DE9FF4FDFF8E0B083B01C46C3
:10317000DBF80010DDE91060924600274B7C3A46F0
:103180001299FFF71DF905005DD028698068804716
:1031900002F0F2FD81460AFB09F0C01D4FEAD0089B
:1031A000FEF7CCFFF10705D1C11700EB917080103D
:1031B00000EB4000002C06DC1838B0FBF8F064424D
:1031C000A04200DC0446F00707D10090DDE90301CE
:1031D0002346524600F0E0FB0746002C03DC28465D
:1031E000FFF72AF92FE004FB08F01830F10702D0AE
:1031F000FEF7DAFE01E0FEF7DCFE06001CD0FEF76B
:103200008FFF01900560039981800499C180A0F827
:1032100008A04481C0F80C80C0E9049701A8FEF71B
:10322000AFFF1298AE602861DBF80000407CA86117
:10323000304607B0BDE8F08F2846FFF7FDF817B11C
:103240003846FEF7D1FE0020F3E70000140200200C
:103250002DE9F74F92B090461298FEF761FF0B9060
:10326000B0F908100691B0F90A100D9100680069D4
:10327000D0F804B00BA8FEF783FF384C384D206817
:10328000407C55F82000C1688A6A08219047814631
:10329000182801D34FF020092068407C55F8200001
:1032A0000069079003C80C902E48814201D001208C
:1032B00000E000201090002000F031FC002849D1EF
:1032C0000026DDE91207B2460FAB069C4546761C88
:1032D0000193FFF77BFE014604FB0AF001EB80023D
:1032E000234629463846CDF800B000F0FBFD050026
:1032F00030D01098D0B1DDE906134A46284600F0D8
:10330000BFFC98B9DDE906702C46D0F810C0BCF1BE
:10331000000F05D0294604233A460846E04705E059
:103320000C992068884701C47F1EF9D10020CDE99F
:103330000305059001200090CDE9010941460346AF
:1033400008F10108069A139801F02AFD0D98401E15
:103350000D90B6D115B0BDE8F08F0000140200202A
:103360002C020020A3520008F8B515460E46074669
:10337000FEF7D6FE009000681621C068426A002061
:10338000904704466846FEF7FBFE002C03D02A4611
:1033900031463846A047F8BDF8B515460E460746F3
:1033A000FEF7BEFE009044696846FEF7E9FE384627
:1033B000FFF7FAFD0346082800DD2CB12A46314606
:1033C000384608F0ADF8F8BD2A463146384608F0D0
:1033D0003FFAF8BD10B5002821D009B30AB3B1F9FE
:1033E0000040B2F900309C4200DA23460380B1F974
:1033F0000240B2F902309C4200DA23464380B1F920
:103400000440B2F904309C4200DD23468380B1F9C8
:103410000610B2F90620914200DC1146C18010BDB1
:1034200011460A6802604968416010BD00280BD04F
:1034300003880B44038083881944818041881144A8
:103440004180C1881144C18070472DE9F047814611
:103450000C4692462778A078617800EB012085B26F
:103460002079E17800EB012086B260790006A1792D
:1034700000EB0140E17900EB0120217A00EB01082B
:1034800037B1012F05D0022F0AD0032F16D10EE03D
:1034900014E0052332B229B24046FFF762F80DE08E
:1034A000052332B229B24046FFF731F806E0052382
:1034B00032B229B24046FFF779F800BF00BFBDE83D
:1034C000F087000070B5094C0020D4E900218A4241
:1034D0000AD0D2E90056104607F0BEF92060314606
:1034E000284604F005F9012070BD0000F00200201C
:1034F0002DE9FC41154DDDE908742D68B5F908602A
:10350000864200DD3046B5F90C60964200DA32465C
:10351000824219DBB5F90A608E4200DD3146B5F909
:103520000E509D4200DA2B468B420DDB00E02C460C
:10353000E5682D6825B1042D02D02568002DF6D14F
:10354000CDE9007402F0B4F8BDE8FC81140200205B
:10355000B0F90220B1F906309A4213DCB1F9022029
:10356000B0F906309A420DDCB0F90020B1F9043010
:103570009A4207DCB1F90010B0F90400814201DC85
:1035800001207047002070470146024878220068F9
:10359000FCF7EABD14020020024978220968FCF712
:1035A000E3BD00001402002010B502F055F902F04E
:1035B0004BFABDE8104003F0D7BD000070B50446DB
:1035C0000548022C0068457C02D24474FFF7ECFFEA
:1035D00002480460284670BD140200206C020020DE
:1035E00002F05CB902F092B90149886070470000AE
:1035F0000802002002F09CB903490968CA6900B1B9
:10360000C861104670470000140200200249096892
:103610008A7E88761046704714020020094A30B42A
:103620001080094A1180094A1268537C084A52F8EE
:103630002330DA68146A0A46A446014630BC1846AC
:1036400060470000440200204602002014020020CF
:103650002C020020024909680A7E0876104670474D
:103660001402002003490968B1F92C20888510460E
:10367000704700001402002003490968B1F92A20AC
:10368000488510467047000014020020044910B518
:103690000968054C034B8A7C23608874104610BD72
:1036A00014020020AD4500083C02002010B504467D
:1036B000082C1AD2DFE804F01904070A0D101316BB
:1036C00003F00CF811E003F063F80EE003F07EF96C
:1036D0000BE002F097FF08E003F01AF905E003F0B1
:1036E000D3F902E003F0B4F800BF00BF6CB902F0F8
:1036F000F5FF03F04DF803F069F902F083FF03F0E2
:1037000007F903F0C1F903F0A3F810BD02480068FF
:10371000002800D000477047FC02002002498A6858
:1037200002B98860FFF7F2BFF002002010B5040074
:1037300009D007F077FB204607F0AAFE2046BDE837
:103740001040FEF751BC10BD38B50C4660B1FEF715
:10375000E7FC00908089204201D0012400E0002491
:103760006846FEF70DFD00E00124204638BD00004C
:1037700038B50546002028600648046844B1204654
:10378000FEF7CEFC0090006928606846FEF7F8FC62
:10379000204638BD3403002038B504004FF0000047
:1037A0000D46086011D02046FEF7BAFC00908468F0
:1037B00044B16846FEF7E4FC2046FEF7B1FC0090F9
:1037C000006928606846FEF7DBFC204638BD000033
:1037D0002DE9F04705460C469146052D33D2DFE82A
:1037E00005F003141D242B006078217800EB0120E4
:1037F00086B2E078A17800EB012087B2A0463A4675
:1038000031464046FEF76AFF1DE026780F4951F821
:103810002600FFF7E7FEFEF771FD14E026780C495D
:1038200051F82600FFF7E8FE0DE02678094951F827
:103830002600FFF721FF06E02678074911F8260049
:10384000FFF724FF00BF00BFBDE8F08748E3000892
:10385000A4010020B4E30008C8E3000802490148BD
:10386000086070472CEB0008180200202DE9F04199
:10387000084E0446056830680168284688470746B0
:103880003068416828468847284420603846BDE8AB
:10389000F0810000180200202DE9F0410C46064698
:1038A0000025064F05E038684168304688470644E1
:1038B0000544641EF7D22846BDE8F08118020020B6
:1038C0002DE9F0411E46069C1746884605463A46B5
:1038D000A8687F1C3346D0F804C041462846E0471C
:1038E000641EF4D1BDE8F08170B5B0F90040091B49
:1038F000B0F904408C422CDD00F11404B0F9025000
:103900000069521B02FB0040CA1800EBE104521E82
:10391000D010B0EBE10501F007034FF0FF0102F01A
:10392000070221FA03F0C2F1070201FA02F1CEB256
:1039300021780FD001436D1E04F8011B002D05DD19
:10394000FF2229462046FCF72FFC2C4420783043E8
:10395000207070BD30400143217070BD10B5B0F9CA
:103960000030B0F90240C91A00F114030069121BBB
:1039700002FB003000EBE10001F007030278802138
:10398000D9400A43027010BDB0F9061002695143D4
:103990001430FCF710BC00002DE9F843804602F11A
:1039A0000F000011470003FB07F01C46154689462F
:1039B0001430FEF7FEFA060013D0FEF7B1FB0090BC
:1039C000A0F80080A0F802908580C480064981603C
:1039D0000121818107616846FEF7D2FB3046BDE8D0
:1039E000F8830020FBE700001842010870B5B0F929
:1039F0000660B0F904400B6800F11405964220DD22
:103A00000069A34202FB005000EBE30219DAA4F1C3
:103A100001044FEAE400A0EBE30512F8010B03F008
:103A2000070400FA04F0C4B208E055B112F8014BE3
:103A300003F10803A5F1010523F00703002CF4D0DE
:103A400008E0002070BD00BF4FEA44604FEA1064F8
:103A500003F101032006F7D5FF2C0AD0184605E034
:103A60004FEA44644FEA146400F101006606F7D49B
:103A700000E0D81DC443640706D007E012F8014BEC
:103A8000FF2C0FD100F108006D1EF7D5A0EB03004D
:103A900000F101000B6070BD4FEA44624FEA12640E
:103AA00000F101002206F7D4F0E738B50546FEF72D
:103AB00037FB00908189491E0CB284816846FEF76D
:103AC0005FFB002C02D12846FEF78EFA38BD0000BD
:103AD00010B54FF420510548FEF77EFA8020FEF71E
:103AE00041FB0348FFF780FD10BD0000900400205B
:103AF000303D0108044A1268111800BF024A1268DA
:103B00008A1A002AFADC704748000020704700003B
:103B100001480068704700004800002070470EB55B
:103B200008B102AA00E00022002301A9684600F0C3
:103B300057FB0EBD074910B5CC6818B10120C8600D
:103B4000801E03E00020C8606FF07F4000F0F0FFAF
:103B5000204610BD1403002010B5082A0EDC0346D1
:103B6000012A1AD0022A58D0042A78D010F8042B3F
:103B700003F8012B491EF9D1012010BD102A0ADCDF
:103B80000222022AF8D1024630F8043B22F8023B16
:103B9000491EF9D1F0E7002010BD10F8042BD20720
:103BA000120E491E34D010F8044B491E04F00104D3
:103BB00042EA84122CD010F8044B491E04F0010490
:103BC00042EA441224D010F8044B491E04F00104C8
:103BD00042EA04121CD010F8044B491E04F0010400
:103BE00042EAC40214D010F8044B491E04F0010448
:103BF00042EA84020CD010F8044B491E04F0010480
:103C000042EA440204D010F8044B04F001042243B9
:103C100003F8012B0029C0D1AEE710F8042B92075E
:103C2000120E491E15D010F8044B491E04F003046F
:103C300042EA04120DD010F8044B491E04F00304AC
:103C400042EA840205D010F8044B04F00304224336
:103C5000491E03F8012B0029DFD18DE7FFE710F89B
:103C6000042B1207120E491E05D010F8044B04F065
:103C70000F042243491E03F8012B0029EFD17BE7F3
:103C80002DE9F0411E680D460446082A09DC074666
:103C9000012A21D0022A62D0042A7CD0082A1AD113
:103CA00095E0102A03DC02200228F8D102E000206F
:103CB000BDE8F081D3F810C02746BCF1000F04D056
:103CC0000A462146022308468AE001CCB04727F87D
:103CD000020B6D1EF9D18BE001CCB047C0074FEA53
:103CE00010686D1E36D001CCB04748EA801000F055
:103CF000FF086D1E2ED001CCB04748EA401000F0FE
:103D0000FF086D1E26D001CCB04748EA001000F035
:103D1000FF086D1E1ED001CCB04748EAC00000F07D
:103D2000FF086D1E16D001CCB04748EA800000F0B5
:103D3000FF086D1E0ED001CCB04748EA400000F0ED
:103D4000FF086D1E06D001CCB04740EA080000F025
:103D5000FF086D1E07F8018B002DBDD148E001CC96
:103D6000B04780074FEA10686D1E18D001CCB047ED
:103D700048EA001000F0FF086D1E10D001CCB047DB
:103D800048EA800000F0FF086D1E08D001CCB04763
:103D900040EA080000E007E000F0FF086D1E07F8A9
:103DA000018B002DDBD123E001CCB04700074FEAA7
:103DB00010686D1E06D001CCB04740EA080000F044
:103DC000FF086D1E07F8018B002DEDD110E0D3F830
:103DD00010C0BCF1000F05D00A4601460123384649
:103DE000E04705E001CCB04707F8010B6D1EF9D1A3
:103DF00001205DE70A4810B5816900290ED1012133
:103E00008161FFF765FE01F087FE054905481C3119
:103E10000860BDE81040084600F086BB10BD0000F9
:103E200008020020A5AB00080149084400F084BB4B
:103E3000905F01007CB5064628480D46006868B1D1
:103E4000002003F057FE06E06A462946304604F09B
:103E500039FC03F0F5FD0028F6D17CBD1068009018
:103E60001F4C506801902268BDF8000032F84C1FCA
:103E70000844ADF80000BDF8020091880844ADF890
:103E80000200BDF8040011880844ADF80400BDF834
:103E9000060091880844ADF80600684603F02AFE43
:103EA0000EE000BF2068BDF800106A464184BDF8EE
:103EB000021081842946304604F004FC03F0C0FD62
:103EC0000028EFD1206830F8221F428D891A018026
:103ED0004188C28D891A41807CBD000040020020CB
:103EE000140200202DE9FF4F00208BB0044601464C
:103EF000009019981D461646016007AB002203A9E1
:103F000002A800F06DF918B100200FB0BDE8F08FE5
:103F10000798854200DD05465C4F0A955C49386884
:103F2000407C51F82010049109690691FEF73CFE8F
:103F300005903868407CFEF791FE564981468842DC
:103F400004D05549894501D0012000E000200990A6
:103F500001CE1899884782465FEA106B71D00098AD
:103F600070BB0B9800EB040848480068B0F90800E3
:103F7000404503DDA0EB0807804600E000270299DA
:103F8000049801EB840101EB8701CDE90010DDE924
:103F90000A010A180C9B0892521E19464046FFF768
:103FA000A7FA01200090059818280ADA0298DDE99E
:103FB000052300EB840000EB8700E91B00F070F89C
:103FC00010E0099870B1029800EB840000EB8707BD
:103FD0000898A0EB080849463868884701C7B8F137
:103FE0000108F8D12D48C06960B3DDE9020700EB94
:103FF000840007EB8402CDE90202284C361F2B46D1
:10400000E46930460299A047FF203168B0EB116F98
:1040100002D10299096804E0029A1268B0EB126FAB
:1040200001D1039A11600299361D091D029103996D
:10403000091D03916D1EE8D11999012003970860AD
:104040001DE01EE0FFE7BBF1FF0F0ED00298CBF1A1
:10405000FF0250F82410504600F00EFA039941F880
:10406000240019990120086005E00298039950F88E
:10407000240041F82400641C6D1E7FF469AF03988E
:1040800043E7039941F824A0EBE700001402002065
:104090002C020020A3520008A1520008BC020020FC
:1040A0002DE9F05F0C1E16DD5E68014600EB84050D
:1040B000082A12DC611E012A28D0022A48D0042ACC
:1040C0006AD0082A07D1071917F8010DB04745F83B
:1040D000040D641EF8D1BDE8F09F102AFBDC02221B
:1040E000022AF8D15F693FB12246BC46BDE8F04FD5
:1040F00002235DF804EB604701EB440737F8020D3B
:10410000B04745F8040D641EF8D1E4E700EBE10088
:104110002D1F10F801A9814601F00707802020FA21
:1041200007F800BF0AEA0800C7F10701C840B04716
:1041300045F804093FB17F1E4FEA4860000E8046F3
:10414000641EEFD1C7E7072719F801A90120F6E798
:1041500000EBA1002D1F01F0030710F801A9814613
:104160007900C02020FA01F84FF0060B0AEA080097
:10417000ABEB4701C840B04745F804093FB17F1E8B
:104180004FEA8860000E8046641EEFD1A3E7032744
:1041900019F801A93846F6E700EB610001272D1F49
:1041A000A74310F801A98146B900F02020FA01F8D0
:1041B0004FF0040B0AEA0800ABEB8701C840B04798
:1041C00045F804093FB17F1E4FEA0870000E804693
:1041D000641EEFD17FE7012719F801A90F20F6E748
:1041E0002DE9F047204C06461F46A06990468946B7
:1041F000002540B90120A06104F120011B4808609E
:10420000084600F091F9606910B900F0FEFF6061A6
:1042100007B138604EB1A06830B960698000FDF721
:104220000BFFA06000B901253060B9F1000F0AD082
:10423000E06830B960698000FDF7FEFEE06000B91B
:104240000125C9F80000B8F1000F0AD0206930B983
:1042500060698000FDF7F0FE206100B90125C8F813
:1042600000002846BDE8F087BC02002019AC000819
:1042700073B5124A01A90098126890470024009073
:10428000C8B10F4900250968C969496959B10A6867
:104290004AB1019990477CBD6846FFF7E7FA0546A9
:1042A000FEF794FC04440198401E0190F4D5284682
:1042B00000F032F8044420467CBD0000EC020020EF
:1042C0001402002073B50D460098002490B10A49ED
:1042D0000968C969496959B14A684AB1294690478C
:1042E0007CBD6846FFF7C2FA20B10A2802D0641CE0
:1042F000AC42F6DB20467CBD14020020044AB2F931
:10430000002002600348B0F9000008607047000018
:10431000440200204602002038B50024694600947B
:10432000FEF75CFC0099814200DD0C1A204638BD86
:10433000B0F90030B1F90020934200DA0280B0F900
:104340000230B1F90220934200DA4280B0F9043021
:10435000B1F90420934200DD8280B0F90620B1F962
:1043600006108A4200DDC180704770B5B1F9004087
:10437000B2F900309C4200DD23460380B1F90250BF
:10438000B2F90240A54200DD2C464480B1F9046038
:10439000B2F90450AE4200DA35468580B1F9061014
:1043A000B2F90620914200DB1146C1809D4201DB3B
:1043B000A14201DA002070BD012070BD0146024813
:1043C0000068407C00F002B814020020F8B5012615
:1043D0000F46054602284BDA264C5FB3012F02D068
:1043E000022F45D116E054F8250088B92846FEF77B
:1043F00067F80090B8B3C0680D21426A68469047DC
:10440000020035D039460098904754F82500002620
:10441000401C2BE0FEF754F8009020B3C0680D213B
:10442000426A68469047020022D039460098904779
:1044300000261DE054F8250001280FD12846FEF77C
:104440003FF8009050B1C0680D21426A684690471D
:10445000020003D0394600989047002654F8250002
:1044600010B1012101E003E00021401A44F82500C9
:104470003046F8BDE402002070B5FF23B3EB116FA6
:1044800029D0C3B200F47F4500F47F04060E5343E5
:10449000554354435643C2F1FF00CAB202FB0032F7
:1044A00001F47F4303FB005301F47F0505FB004447
:1044B000090E01FB0065C2F307204FF47F4101EABA
:1044C0001322090201EA14214FF07F43104303EA4B
:1044D00005430843184370BD2DE9F04F1546DDE94B
:1044E0000CB90C4606464FF0000818E00B9F4FF041
:1044F000FF0A01CE08CCAAEB106202FB09F2B2FB64
:10450000FAF1CAB21946FFF7B7FF20F07F4001C5A4
:104510007F1EEED1099808F1010804EB8004D8450C
:10452000E4D3BDE8F08F000002494A694260486167
:10453000704700000802002030B5002803DA4FF071
:10454000FF32404200E00122154990FBF1F301FBEC
:1045500013004910884202DD52424B421844114B6D
:10456000984200DD081A4FF47A7390FBF3F16FF074
:104570007C044C4300EBC4005A2902DB4FF480302A
:104580000AE0094C04EB810554F821106D686C1A9F
:104590004443B4FBF3F00844002A00DC404230BD41
:1045A000407E0500905F0100B43F010870B5234EC6
:1045B0003168B1F92240C969641E4A6800219047F8
:1045C0003268251A6D1C907CC0070DD0D06990F818
:1045D0002010007E884200DC411EB2F924002246F1
:1045E0000144284600F0E0FC3168887C80070DD546
:1045F000C869B1F9241010F8202F8078401CA2EB74
:10460000500001442246284600F0CEFC3068817CF0
:10461000490711D5C16911F8202F8978A2EB010152
:10462000491E00D50021B0F9240022460144284645
:10463000BDE8704000F0B8BC70BD0000140200205E
:1046400010B502E000F8011B521E0AB18307F9D130
:10465000930818D001EB014402F0030204EB042498
:1046600005E0046044608460C46010301B1F042BAC
:10467000F7DA01E010C05B1E002BFBD103E000BFA6
:1046800000F8011B521E002AFAD110BD024600207C
:104690004FF080414318934201D8D21A581840086D
:1046A0008908F7D1704700F5806000F001B800007C
:1046B00010B50022C0F30B00B0F5006F02DDA0F5CD
:1046C00000600122B0F5806F01DDC0F5006083114C
:1046D0000B4C00F03F00C0F1400134F81300484398
:1046E000402906D004EB4303C1F140015B8803FB82
:1046F000010020308009002A00D0404210BD000097
:10470000E8EA000810B50723012202210848FCF757
:10471000D5F901210648FCF732FA00BF022104480E
:10472000FCF790F90028F9D00148FCF787F910BD93
:10473000002401402DE9F0470024A246A14606E0EE
:10474000FFF7E0FF044409F1010000F0FF09B9F1AF
:104750000A0FF5DB2046FBF7BCFE0746054A064B71
:10476000FBF726FE0546FBF70DFF80B28246BDE84B
:10477000F0870000E12879758E01893F00BFFEE7D0
:1047800004E00E4800880D48001D00880B48008892
:1047900000F002000228F4D009E008480088074829
:1047A0001438008840F00100044914390880034897
:1047B000008800F010001028EFD07047145400401B
:1047C00010B50549054800F0F9F818B10249034849
:1047D00000F0E2F810BD00000004000100540040A9
:1047E00070B500240025274800F0FBF80446264851
:1047F000844211D104202549087000202449087002
:10480000084602780078401C0B4618702148815CED
:104810001C4800F077F934E01B48801C84421AD110
:1048200005201A4908701A4800781B4909788842FF
:1048300001DD002001E0164800781549087008469F
:1048400002780078401C0B4618701248815C0D48B5
:1048500000F058F915E0102C05D1FFF791FF00206A
:104860000A4908700DE00D4884420AD1054800F05D
:1048700045F905460A48006818B1284608490968FC
:10488000884770BD00540040820006001C000020D4
:1048900025000020FA030020240000204000020030
:1048A000200000200149086070470000200000201F
:1048B00070B505460C46142C00DD70BD2246294615
:1048C0000348FBF751FC0348047000BFF5E7000004
:1048D000FA0300202400002000B587B0012148051C
:1048E00001F0E8FA0121082001F0F4FA012108465C
:1048F00001F0F0FAC020ADF8180003208DF81A007E
:104900001C208DF81B0006A92048FCF7A5FF1F20DE
:104910008DF8140000208DF815008DF81600012088
:104920008DF8170005A801F049FA20208DF8140031
:1049300005A801F043FA0020ADF808004BF6FF701F
:10494000ADF80A004020ADF80C000001ADF80E00F3
:104950000001ADF810000E48019001210D4800F053
:1049600021F801A90B4800F053F80122510209482F
:1049700000F044F801229102064800F03FF80122BD
:104980001102044800F03AF807B000BD000C0140E5
:10499000A086010000540040002221F07F42D34352
:1049A0008382704721B1028842F00102028004E054
:1049B00002884FF6FE731A400280704730B50246F7
:1049C00000200023948801F0E06504EA154321F0FB
:1049D0007F41948A0C4014B10BB1012000E000200B
:1049E00030BD10B501460020002300228B8A0A8BBF
:1049F000120443EA020424F07F4010BD1AB18388F8
:104A00000B43838002E083888B43838070470000E0
:104A10002DE9F04385B004460D460026B146042733
:104A2000DFF8CC80A6884FF6C0700640684601F0DB
:104A300071FADDF808802F48B8FBF0F01FFA80F912
:104A400046EA0906A68020884FF6FE7108402080BD
:104A500000262949286888420CD828684000B8FBFD
:104A6000F0F087B2042F00DA04273E4309F1010079
:104A7000208427E0E8884BF6FF71884206D1286839
:104A800000EB4000B8FBF0F087B209E0286800EBCB
:104A9000C00101EB0010B8FBF0F087B247F480478B
:104AA000C7F30B0008B947F0010747F4004006437D
:104AB0004FF4967009FB00F04FF47A7190FBF1F01F
:104AC000401C2084A683208840F001002080268896
:104AD0004FF6F5300640A8886989084306432680CA
:104AE000A88929890843208105B0BDE8F08300002A
:104AF00000127A0040420F00A08601000146088A99
:104B0000C0B270470182704772B6704762B6704794
:104B1000054B10B502EB02121B68D2B2984703494D
:104B20000968084010BD0000BC02002050020020AF
:104B300002490A68086010467047000050020020D1
:104B400070B5044600268C480588408845431021EE
:104B50008A48FCF715FF08218848FCF711FF00BFC1
:104B60008748008900F002000028F9D08248C07907
:104B70008349888100BF8248008900F00100002835
:104B8000F9D07F48808910217C48FCF7FBFE10217A
:104B90007A48FCF7F5FE08217848FCF7F3FE00BFE1
:104BA0007748008900F002000028F9D000207449FD
:104BB000888100BF7248008900F001000028F9D008
:104BC0006F48808910216D48FCF7DCFE10216B488E
:104BD000FCF7D6FE08216948FCF7D4FE00BF684800
:104BE000008900F002000028F9D000206449888183
:104BF00000BF6348008900F001000028F9D0604838
:104C0000808910215D48FCF7BDFE10215B48FCF750
:104C1000B7FE08215948FCF7B3FE00BF5848008989
:104C200000F002000028F9D05348007A54498881E6
:104C300000BF5348008900F001000028F9D0504817
:104C4000808910214D48FCF79DFE10214B48FCF750
:104C500097FE08214948FCF795FE00BF48480089A7
:104C600000F002000028F9D000204549888100BFEB
:104C70004348008900F001000028F9D040488089AD
:104C800010213E48FCF77EFE10213C48FCF778FEE0
:104C900008213A48FCF776FE00BF3948008900F049
:104CA00002000028F9D000203549888100BF34482F
:104CB000008900F001000028F9D0314880891021D6
:104CC0002E48FCF75FFE10212C48FCF759FE082106
:104CD0002A48FCF755FE00BF2948008900F0020071
:104CE0000028F9D0244880792549888100BF2448CC
:104CF000008900F001000028F9D0214880891021A6
:104D00001E48FCF73FFE002632E010211B48FCF74E
:104D100037FE08211948FCF735FE00BF1848008906
:104D200000F002000028F9D020121549888100BF48
:104D30001348008900F001000028F9D0104880894C
:104D400000BF0F48008900F002000028F9D0E0B24F
:104D50000B49888100BF0A48008900F00100002843
:104D6000F9D00748808910210448FCF70BFE761C17
:104D7000AE42CAD370BD0000F0030020000801401D
:104D8000003001400449054A0968497C52F8211065
:104D90000969096808470000140200202C0200205D
:104DA0002DE9F04F05468DB07C48DDF860901A9CE7
:104DB00000681E4617464FF0000A78B11B9B199AEF
:104DC000CDF808900593CDE90324DDE91623CDE95C
:104DD0000023046833463A46284682E0DDE916029D
:104DE00001EB060805EB070C1043A8F10108ACF134
:104DF000010C012806D0C9F108000590002002919D
:104E00000890C8E066480268B2F90A30581A0028CB
:104E100006DD361A002E65DD1946199B00FB03449A
:104E2000B2F90E00A8EB0000002802DD361A002EB1
:104E300058DDB2F90C00ACEB0000002800DD3F1A91
:104E4000B2F908300020AB4237DD581B3F1A4B4601
:104E5000B9F1080F28D007DC012B0DD0022B13D09D
:104E6000B9F1040F29D117E0102B1FD0182B20D037
:104E7000B9F1200F21D11CE020F0070304EBE0047E
:104E80001D4400F0070018E020F0030304EBA00429
:104E90001D4400F0030010E020F0010304EB600467
:104EA0001D4400F0010008E0044404E004EB400469
:104EB00001E004EB800405440020002F12DD1B9B61
:104EC000DDF864C0CDE90403CDE902C4CDE9006991
:104ED000527C34483B4650F82200C26854680A4667
:104EE0002946A0470DB0BDE8F08F179902980844F5
:104EF00009902B49401E00900A68B2F90A3083429B
:104F000041DCB2F90E10029881423CDB4FF0000BFD
:104F1000D84603950B9434E0BBF1000F05D10B98F4
:104F20004FF0080B10F801AB0B900599ABEB090B98
:104F30003AFA01F00AFA09F101F0FF0A04D118491E
:104F40000968097C890716D415490968C96B0A687C
:104F50000C921B9A0AB152F8200008601699039827
:104F6000009B4218521E029900F0A8F80C490C98B8
:104F70000968C96B08600399169808F1010808448C
:104F80000390B845C8DB0898401C08900998029027
:104F9000199804440898B042A7DBA3E74002002018
:104FA000140200202C020020F0B40C4612490968BB
:104FB000B1F90A30A3421CDCB1F90E30A34218DB70
:104FC000B1F90830834200DD1846B1F90C30934244
:104FD00000DA1A4682420CDB4B7C084951F8235018
:104FE00013462246E9688E6801462846B446F0BC5E
:104FF0006047F0BC70470000140200202C02002023
:105000000A46174930B40968B1F90A30934225DCE1
:10501000B1F90E30934221DBB1F9083083421DDC37
:10502000B1F90C30834219DB0B7C0E4CDB0709D045
:10503000497C54F82130D968CC690146A44630BC7B
:1050400018466047CB6B497C1B6854F82140E168E7
:105050008D6901462046AC4630BC604730BC704785
:10506000140200202C020020124B30B41B68B3F94C
:10507000084084421CDCB3F90C40844218DBB3F9CD
:105080000A408C4200DD2146B3F90E40944200DA1A
:1050900022468A420CDB5C7C074B53F82440E368D1
:1050A000DD6813460A4601462046AC4630BC6047E0
:1050B00030BC7047140200202C02002038B5134C7D
:1050C0002468B4F90850854200DD2846B4F90C5034
:1050D000954200DA2A46824217DBB4F90A508D4223
:1050E00000DD2946B4F90E509D4200DA2B468B4272
:1050F0000BDB0093647C064B53F82440E3681D6986
:1051000013460A4601462046A84738BD140200202F
:105110002C020020082105F0EFBA000002480068C8
:10512000806B00687047000014020020024800688D
:10513000C06B00687047000014020020024809217B
:105140000068407C05F0D8BA14020020092105F05F
:10515000D3BA70B500252C462046FDF7B1F900B151
:105160006D1C641C022CF7DB284670BD02480068E9
:10517000407C00F003B800001402002010B5FDF7D9
:105180009FF9002805D0C168CA6ABDE81040022115
:10519000104710BD10B500F005F8BDE8104000F054
:1051A00071B800002DE9FC41144E0546144F3068DB
:1051B0000C46407C57F82000C1680A6B694690474E
:1051C000BDF90000A8420BDCBDF90400A84207DBD2
:1051D000BDF90200A04203DCBDF90600A04202DADC
:1051E0000020BDE8FC8130682246407C57F8200052
:1051F000C1684B6929469847F3E700001402002074
:105200002C020020032105F077BA032005F0B8BA7C
:10521000042105F071BA0000024801210068407CB9
:1052200005F06ABA14020020024802210068407C9E
:1052300005F062BA14020020AFF300802DE9F041BE
:10524000002809D0876837B10D4E716819B104681C
:10525000B4F5807F02DD0020BDE8F0813068844233
:1052600000DD0446002507E057F82500FFF78AFD1A
:10527000716841F825006D1CA542F5DB7068EBE70D
:10528000540200200449054A0968497C52F821105B
:105290000969496808470000140200202C02002018
:1052A0007047704710B500F01F01074A074BC0F365
:1052B0004514C0F3C4201B5D105C515C00EB03205F
:1052C00000EB014010BD0000543F0108743F01088D
:1052D00010B500F0F3FE0221AB48FCF751FB14209F
:1052E00007F09AF90221A848FCF74CFB142007F0BC
:1052F00093F9F020A54908804FF4A07048802C2035
:1053000088712A20C8712B2008720121002000F02A
:10531000F9FB322007F080F9002000F095FA9B4954
:105320008880D32000F0D6FB00F0A8F900F0A6F9A1
:1053300000F0A4F995498880084680884FF6FF71EF
:1053400001EA00209149888000F098F98F49898806
:1053500008438E498880CF2000F0BCFB002000F07D
:10536000A1FBD92000F09EFB302000F09BFBED203C
:1053700000F0B0FB642000F095FB032000F092FBEE
:10538000122000F08FFB812000F08CFBE82000F061
:10539000A1FB852000F086FB102000F083FB782025
:1053A00000F080FBCB2000F095FB392000F07AFB69
:1053B0002C2000F077FB002000F074FB342000F07C
:1053C00071FB022000F06EFBF72000F083FB202031
:1053D00000F068FBEA2000F07DFB002000F062FB9B
:1053E000002000F05FFBC02000F074FB212000F0E3
:1053F00059FBC12000F06EFB122000F053FBC520CA
:1054000000F068FB322000F04DFB3C2000F04AFB2E
:10541000C72000F05FFBC12000F044FB362000F005
:1054200059FBA82000F03EFB2B2000F053FB00208E
:1054300000F038FB002000F035FB002000F032FBCC
:10544000EF2000F02FFB2A2000F044FB002000F0AA
:1054500029FB002000F026FB012000F023FB3F2069
:1054600000F020FB3A2000F035FB552000F01AFB3D
:10547000B12000F02FFB002000F014FB182000F0FA
:1054800011FBB62000F026FB0A2000F00BFBA22047
:1054900000F008FBF22000F01DFB002000F002FBF2
:1054A000262000F017FB012000F0FCFAE02000F0BD
:1054B00011FB0F2000F0F6FA202000F0F3FA1E2076
:1054C00000F0F0FA092000F0EDFA122000F0EAFAFC
:1054D0000B2000F0E7FA502000F0E4FABA2000F0C8
:1054E000E1FA442000F0DEFA092000F0DBFA142093
:1054F00000F0D8FA052000F0D5FA232000F0D2FA07
:10550000212000F0CFFA002000F0CCFAE12000F0DA
:10551000E1FA002000F0C6FA192000F0C3FA1920C1
:1055200000F0C0FA002000F0BDFA122000F0BAFA34
:10553000072000F0B7FA2D2000F0B4FA282000F080
:10554000B1FA3F2000F0AEFA022000F0ABFA0A20D8
:1055500000F0A8FA082000F0A5FA252000F0A2FA31
:105560002D2000F09FFA0F2000F09CFA112000F08F
:10557000B1FA782007F050F8292000F0ABFA4FF686
:10558000FF70FFF7DDFA10BD000C0140F0030020B2
:1055900010B50A4C606860B920688000FCF74CFDCB
:1055A000606040B104F10801054808600846FEF754
:1055B000BBFF002010BD012010BD000054020020E0
:1055C000D1AB00082DE9F041FFF7C3FD07460025E8
:1055D00028E02846FCF774FF18B32846FDF7EEFFD5
:1055E00080462846FFF796FD082817DC0F4810492B
:1055F00050F825000069884210D02846FFF7A6FD24
:105600000646002408E0E0B2FFF73CFE0246E1B2A5
:10561000284600F093F9641CB442F4DB4046FDF7E1
:10562000CDFF6D1CBD42D4DBBDE8F0812C02002013
:105630007441010870B50025002410210D48FCF7C5
:105640009FF908210B48FCF79DF900210A4800F05A
:10565000DBFD05460021084800F0D6FD0446102178
:105660000448FCF78FF904F1080005FA00F080B255
:1056700070BD0000000801400030014010B500245A
:1056800010210948FCF77CF908210748FCF77AF952
:105690000021064800F0B8FD044610210248FCF73E
:1056A00071F9204610BD00000008014000300140A3
:1056B0002DE9FF4F83B01646DDE910408B46C068E8
:1056C0004769426A7AB1012111A8904705000AD0C2
:1056D0000698CDE9000433465A4603991198A84725
:1056E00007B0BDE8F08F57480068407CFDF75CFAD2
:1056F0008246082801DC012005E0BAF1100F01DC28
:10570000022000E004208046002596E04046B8F1E3
:10571000010F05D0022871D0B8F1040F25D17CE02B
:10572000BAF1090F21D2DFE80AF08605213F3F597F
:1057300059595900039815E001465A461198B8473F
:10574000C5F1070188404FF67F722178EA40114089
:1057500001436D1C217004EBE50425F007000541B1
:1057600009F101008146B042E6DD64E0039817E0EC
:1057700001465A461198B8470621A1EB45018840D9
:105780006B004FF63F722178DA40114001436D1CE7
:10579000217004EBA50425F00300054109F1010087
:1057A0008146B042E4DD46E0039813E001465A46E4
:1057B0001198B8470421A1EB850188402178AB00FE
:1057C0000F229A401140014321702C4485F00105BD
:1057D00009F101008146B042E8DD2CE0DDF80C90D3
:1057E00007E001465A461198B847207009F10109AF
:1057F00044444846B145F4DD1DE0FFE7DDF80C9078
:1058000007E001465A461198B847208009F101097E
:1058100044444846B145F4DD0DE0DDF80C9007E066
:1058200001465A461198B847206009F101094444DD
:105830004846B145F4DD0BF1010B06998B457FF726
:1058400065AF4DE71402002010B50446204600F075
:1058500041F9FFF7EFFE10BD10B50E4C0E49206860
:10586000407C51F8200050B1C1680968042903D078
:1058700000680028F8D102E008B1FCF71FFE20689C
:105880000021016600F108014161BDE8104000F00F
:105890002FB80000140200202C02002001490968E2
:1058A000496808474C020020044909680A7C5207ED
:1058B00001D5C96B00E0896B0860704714020020B5
:1058C0007CB5094C05462068417C084850F8210009
:1058D000C1680A6B6946904720686A4629460830C5
:1058E000FEF743FD7CBD0000140200202C020020C6
:1058F0000448016804484A7C083150F82200C26814
:10590000126B1047140200202C0200200149096884
:10591000096808474C020020044909680A7C5207BC
:1059200001D5896B00E0C96B086070471402002044
:1059300001490968896808474C020020F8B51546F6
:105940000E460124FCF7BCFD009058B1C068102140
:10595000426A68469047030004D02A4631460098C0
:10596000984700242046F8BD2DE9F04717000C4663
:10597000054636D01C490868B0F90A20A24230DC3E
:10598000B0F90E20A2422CDBB0F90820AA4228DC94
:10599000B0F90C20AA4224DB144E0F2F02D3C16BA6
:1059A0000B6813E0C06B88460068FFF76BFC81460C
:1059B00021462846FFF7EEFB01463A464846FFF7E8
:1059C000A7F8FFF7DFF90346D8F800002246407C2D
:1059D00056F82000C1688E692946B446BDE8F047F4
:1059E0006047BDE8F0870000140200202C02002070
:1059F000F8B515460E460124FCF762FD009058B13B
:105A0000C0680B21426A68469047030004D02A46CA
:105A100031460098984700242046F8BDF8B5154651
:105A20000E460124FCF74CFD009058B1C0680A21D5
:105A3000426A68469047030004D02A4631460098DF
:105A4000984700242046F8BD10B5074C2068006B2D
:105A5000FFF798F9FFF760FF2068406BFFF792F9B6
:105A6000BDE81040FFF720BF1402002010B5044627
:105A700010210A48FBF784FF08210848FBF782FF42
:105A80002112074800F0C0FBE1B2054800F0BCFB62
:105A900010210248FBF776FF10BD0000000801400E
:105AA0000030014010B5044610210848FBF768FF9C
:105AB00008210648FBF766FF2146054800F0A4FBD5
:105AC00010210248FBF75EFF10BD000000080140F6
:105AD0000030014010B5044610210848FBF750FF84
