:020000040800F2
:10000000A83500204501000833520008013C0008D3
:100010002F52000881070008E96300080000000073
:10002000000000000000000000000000AF560008C3
:100030006509000800000000FD520008E55F0008A7
:100040005F0100085F0100085F0100085F01000810
:100050005F0100085F0100085F0100085F01000800
:100060005F0100085F0100085F0100085F010008F0
:100070005F0100085F0100085F0100085F010008E0
:100080005F0100085F0100085F0100085F010008D0
:100090005F0100085F0100085F0100085F010008C0
:1000A0005F0100085F0100085F0100085F010008B0
:1000B0005F010008496000085F010008653C000816
:1000C000453C00085F0100085F0100085F0100086F
:1000D0005F010008C96100085F0100085F010008B6
:1000E0005F0100085F0100085F0100085F01000870
:1000F0005F0100085F0100085F0100085F01000860
:100100005F0100085F0100085F0100085F0100084F
:100110005F0100085F0100085F0100085F0100083F
:100120005F0100085F0100085F0100085F0100082F
:10013000DFF80CD000F094F90048004739BB000804
:10014000A83500200648804706480047FEE7FEE73E
:10015000FEE7FEE7FEE7FEE7FEE7FEE7FEE7FEE777
:10016000E95F00083101000810B5431A934209D233
:100170008318881803E010F8011D03F8011D521EB2
:10018000F9D210BD40EA01039B0703D009E008C97A
:10019000121F08C0042AFAD203E011F8013B00F84C
:1001A000013B521EF9D210BDD2B201E000F8012B82
:1001B000491EFBD270470022F6E710B513460A46E7
:1001C00004461946FFF7F0FF204610BD421C10F808
:1001D000011B0029FBD1801A704710B5002200E0F6
:1001E000521C835C8C5CA34201D1002BF8D1D8B2A5
:1001F000E1B2401A10BD034611F8012B00F8012BA3
:10020000002AF9D1184670472DE9FE4F81EA030410
:1002100004F0004421F0004100944FF0000B23F063
:10022000004350EA01045ED052EA03045BD0C3F3FA
:100230000A54C1F30A552C44A4F2F3340194A0FBF0
:100240000254C1F3130141F48011C3F3130343F4C7
:10025000801301FB024400FB034E840A970A44EA20
:10026000815447EA8357A4FB076802958D0A05FB72
:1002700007854FEA932C04FB0C542705029D4FEA97
:10028000065847EA1637B5EB08056EEB070C870EE4
:10029000920E47EA811742EA8312A7FB0201B6EBEE
:1002A0000B0164EB00042B0D43EA0C335E1844EBA6
:1002B0001C50DA465146E7FB0201C5F313044FEA2E
:1002C0000B3343EA14534FEA0432019C43EA06031A
:1002D000A4F10C040294009CCDE900B400F072F883
:1002E00003B0BDE8F08F00200146F9E70EB5C10F5D
:1002F00080EAE0700844CA07002140F233438DE8E9
:100300000E000A460B4600F05DF803B000BD0EB5C6
:1003100040F2334102910021CDE900110A460B461B
:1003200000F050F803B000BDC1F30A5210B5C1F39C
:10033000130140F2FF3341F480119A4201DA0020A8
:1003400010BD40F233439A42A2F2334203DC5242E0
:1003500000F019F810BD904010BD30B50B460146B5
:1003600000202022012409E021FA02F59D4205D354
:1003700003FA02F5491B04FA02F52844151EA2F1FE
:100380000102F1DC30BD202A04DB203A21FA02F020
:100390000021704721FA02F3D040C2F120029140BF
:1003A00008431946704710B5141E73F1000408DAAB
:1003B000401C41F1000192185B411A4301D120F029
:1003C000010010BD2DE9F04D92469B4611B1B1FAE6
:1003D00081F202E0B0FA80F22032904600F052F84A
:1003E00004460F4640EA0A0041EA0B0153465A46CA
:1003F000084313D0114653EA010019D0C8F1400256
:100400005046FFF7C0FF05460E4650465946424645
:1004100000F038F8084305D0012004E020463946B2
:10042000BDE8F08D0020054346EAE0762C433743D3
:100430000A986305E40AA0EB08000022FD0A44EADA
:1004400047540A3002D500200146E9E7010510199A
:100450006941DDE9084500196941BDE8F04DA2E7B1
:10046000064C074D06E0E06840F0010394E8070001
:1004700098471034AC42F6D3FFF75EFE301F0108F8
:10048000501F0108202A04DB203A00FA02F1002064
:1004900070479140C2F1200320FA03F319439040C2
:1004A000704770B58C1810F8015B15F0070301D187
:1004B00010F8013B2A1106D110F8012B03E010F8C7
:1004C000016B01F8016B5B1EF9D12B0705D40023EA
:1004D000521E0DD401F8013BFAE710F8013BCB1A8C
:1004E000921C03E013F8015B01F8015B521EF9D581
:1004F000A142D8D3002070BD21B1826842F0010230
:10050000826003E0826822F001028260704700008E
:1005100010B504461248844208D10121401504F068
:100520002BFF0021601504F027FF17E00D488442DF
:1005300008D10121001504F01FFF0021201504F04F
:100540001BFF0BE00848844208D10121C80304F0D6
:1005500013FF00214FF4004004F00EFF10BD000017
:100560000024014000280140003C014001460020D9
:100570008A6802F004020AB1012000E000207047FE
:100580000146C86C80B270470246002013680B40D9
:100590000BB1012000E000207047014600208A686E
:1005A00002F008020AB1012000E0002070470000BC
:1005B00030B502460020002350680F4C20400D79D2
:1005C0000C6844EA05242043506090680B4C20409E
:1005D000D1E902542C434D7944EA4504204390600C
:1005E000D06A20F470000C7C641EE4B2234340EA1D
:1005F0000350D06230BD0000FFFEF0FFFDF7F1FFB9
:10060000F0B504460D4600200021092D11DDE068FB
:10061000A5F10A0606EB4607072606FA07F1884306
:10062000A5F10A0606EB460603FA06F10843E06068
:100630000CE0206905EB4507072606FA07F1884319
:1006400005EB450603FA06F108432061072A0FDA95
:10065000606B561E06EB86071F2606FA07F18843D5
:10066000561E06EB860605FA06F10843606322E093
:100670000D2A0FDA206BD61F06EB86071F2606FA17
:1006800007F18843D61F06EB860605FA06F10843F4
:10069000206310E0E06AA2F10D0606EB86071F2634
:1006A00006FA07F18843A2F10D0606EB860605FA65
:1006B00006F10843E062F0BD816841F00801816005
:1006C000704721B1826842F4A002826003E0826830
:1006D00022F4A00282607047816841F004018160C9
:1006E0007047002800DC40427047000000B587B02A
:1006F00001214FF4017004F02FFE4FF4004004F08C
:10070000FFFD0420ADF8040000208DF8070001A9CA
:10071000194800F091FC1948FFF7FAFE00200290FA
:100720008DF80C008DF80D004FF46020049000202F
:10073000059001208DF8180002A91048FFF738FF36
:1007400001210E48FFF7D8FE0C48FFF7B5FF00BFA8
:100750000A48FFF722FF0028FAD10848FFF7BCFF3C
:1007600000BF0648FFF702FF0028FAD10121034825
:10077000FFF7A7FF07B000BD0008014000240140BB
:1007800000BFFEE70A480B490068038990F8702013
:1007900053430B80438953434B8083895B1C5343F2
:1007A0005B1E8B80C089401C5043401EC880704730
:1007B00014020020E801002021B1026842F0010289
:1007C000026004E002684FF6FE731A400260704750
:1007D00001684FF6FE721140016000210160416026
:1007E0008160C1604B49884208D14A49083949684B
:1007F00041F00F01474A083A51608AE045491431F7
:10080000884208D143490839496841F0F001414A1A
:10081000083A51607DE03F492831884208D13D497E
:100820000839496841F470613A4A083A516070E009
:1008300038493C31884208D136490839496841F481
:100840007041344A083A516063E03249503188427D
:1008500008D130490839496841F470212D4A083AD5
:10086000516056E02B496431884208D12949083942
:10087000496841F47001274A083A516049E0254926
:100880007831884208D123490839496841F07061BC
:10089000204A083A51603CE01F49884206D1011FB6
:1008A000096841F00F01021F116032E01A4914314A
:1008B000884208D11849091F096841F0F001164A19
:1008C000121F116025E014492831884208D11249CD
:1008D000091F096841F470610F4A121F116018E086
:1008E0000D493C31884208D10B49091F096841F480
:1008F0007041094A121F11600BE0074950318842CC
:1009000007D10549091F096841F47021024A121FE5
:100910001160704708000240080402400146486820
:1009200080B2704710B50022026847F6F0739A4310
:100930000C6A8B6823430C6923434C6923438C69FD
:100940002343CC6923434C6A23438C6A23431A43D1
:100950000260CB6843600B6883604B68C36010BD66
:10096000416070477047000010B50AF06DFF0849FC
:1009700008600846006808B9002010BD054806490F
:10098000086006484860064888600846F5E70000A9
:100990009C01002091B10008102D0020E1AF00085B
:1009A00009B000081CB50024019401AC009400F0CB
:1009B000E7F81CBD2DE9FF4F83B0814606988A46B3
:1009C000A0EB0A08109E00200090A2EB09043568F5
:1009D000934654EA080018D02046FFF782FE0746E7
:1009E0004046FFF77EFE87420BDA204644468046AB
:1009F0004846D14682465846DDF818B00690012098
:100A00000090002C07DD204606E007B04846BDE810
:100A1000F04F00F057B96042A0420AD04846D9468C
:100A20006442C8F1000883464FF0FF37DDF818A094
:100A300000E001275148B8F1000F11D004EBD47148
:100A40004FEA610B01DACBF1000B4C480068807E65
:100A500088B3002F02DA30682044306000257BE044
:100A600000990029016821D0897E11B100278046B4
:100A700015E007B05A4649465046BDE8F04F03F02E
:100A800035BD28466D1C09F0C1FA38B9D8F8000008
:100A900009EB0701C06E4268504690477F1CA74291
:100AA000EFDD6D1E356007B0BDE8F08F8A7E1AB1AC
:100AB0000027804617E019E0C86E5A465146036881
:100AC00007B04846BDE8F04F184728466D1C09F0AE
:100AD0009DFA38B9D8F8001009EB0700C96E4A68CA
:100AE000514690477F1CA742EFDDDAE700250FE073
:100AF00008FB05B090FBF4F101EB0A00009951B13D
:100B00001E4A09EB05011268D26E526890476D1CAF
:100B1000A542EDDDC7E7194909EB05030968C96E70
:100B20004A6801461846F1E708FB05B090FBF4F16E
:100B300001EB0A00019030683844306009F066FA31
:100B400048B9009890B10D4809EB05010068C06EE6
:100B50004268019890476D1CA542E5DD3068002F82
:100B600001DA20443060C01B30609CE7034909EB88
:100B700005000968C96E4A680199EBE71402002074
:100B80002DE9FF470F4640491646804609680C98F4
:100B90001D460A7E012A1CD0A8EB0600791B50EAEC
:100BA00001031CD0A2F101090AF0A6F900F580604A
:100BB000824602F0BAFF00FB09F4504602F0BAFF89
:100BC00000FB09F1002C0CDAC4F5007080124042E1
:100BD0000AE00090324639464046FFF7EBFEBDE89A
:100BE000FF8704F50074A012002904DAC1F5007132
:100BF00089124C4202E001F500718C12002804DDDC
:100C0000411C01EBD171491003E000EBD071491098
:100C1000401E00EBD0704210002C04DD601C00EB85
:100C2000D070401003E004EBD4704010641E04EB5D
:100C3000D47308EB0104ADF800403C18ADF8024055
:100C4000A8EB02045B10B21AADF80440ADF808201E
:100C50003144FC1AEA1AADF80C102844ADF80A2009
:100C6000ADF80E000023ADF806401A460421684690
:100C700000F0CAF83946404607F08CFF2946304656
:100C800007F088FFABE700001402002008B500223F
:100C900000926A4600F002F808BD0000F8B5084E60
:100CA0000546009230680C462346B0F92810B0F98A
:100CB00026002A46FFF764FF3068C5840485F8BD26
:100CC00014020020064A13681A7E012A05D0521E1B
:100CD00002EBD272521000F039B8DA6E5268104747
:100CE000140200202DE9F041054604469046B0F973
:100CF00002001E460F46B4F90020811902EB0800DD
:100D000000F072F909E0241DB4F90200B4F90020E2
:100D1000811902EB0800FFF7B9FF7F1E002FF2DCFC
:100D2000B4F90010B5F90000814205D1B4F9021000
:100D3000B5F90220914207D0B5F902104044314480
:100D4000BDE8F041FFF7A2BFBDE8F0812DE9F05FFB
:100D50000646884640F2C32050434FF47A7190FB18
:100D6000F1F702FB02F002EBD27100EB610B2549B7
:100D700014467F1C09683244301BC96E0B6841461B
:100D8000984701253AE000BF05FB05F004FB04018C
:100D900059451CDDBC4219DD1A4B06EB050AA6EBD2
:100DA00005091B68AAF1010208EB0401DB6E09F1D9
:100DB00001001B689847134BAAF10102A8EB04013C
:100DC0001B6809F10100DB6E1B689847641E0D4823
:100DD00006EB040AA6EB0409006808EB050152467D
:100DE000C06E0368484698470648A8EB050152467E
:100DF0000068C06E0368484698476D1CBD42C3DD5D
:100E0000BDE8F09F140200202DE9FF4F40F6FF746B
:100E10000F46664283B09B46814600210BE000BF2F
:100E200009EB8100B0F90200A04200DA0446B042AA
:100E300000DD0646491CB942F2DB6848006840699B
:100E400000280DD0B0F906101A46A1EB0B01B142F3
:100E500000DA0E46B0F90200801AA04200DD044616
:100E6000B5E0DFF87CA100200546CAF8000089E063
:100E7000781E854201DA6B1C00E0002309EB850C2B
:100E800009EB8302BCF90200B2F90210A04245D17D
:100E9000A14215D139F92330059A39F9251003EB10
:100EA000020C4E4A05981268084404EB0B01D26EFE
:100EB0006045136801DA62462BE00246604628E08E
:100EC0002846A4464FF000087A1E0BE008B1401EE9
:100ED00000E0781E09EB8003B3F90230634504D1CA
:100EE00008F101089045F1DB2346A34249D0A3EB6A
:100EF000040239F92500A1EB040C059B92EA0C02CF
:100F000009D4364A184404EB0B011268D26E1368F8
:100F10000246984735E006F0D5FB32E0A14230D0DA
:100F200001DBA04203DDA0422BDBA14229DCE0462D
:100F300088420ADC0346A04223DC0846A14220DBAB
:100F4000B8F900C0B2F9001008E00B46A14218DC65
:100F5000A04216DBB2F900C0B8F90010E21AA1EB0A
:100F60000C0151430029A0EB030202DD01EB6201F9
:100F700002E0A1EB6201491CC01A91FBF0F0604451
:100F8000C9E76D1CBD42FFF673AF0598009004EBF6
:100F90000B00019000208046054613E01149B8F18E
:100FA000000F31F915A009D0009901EB0A0208449D
:100FB0000A490968C96E0B680199984788F00108C9
:100FC00050466D1C064909688D42E7DB641CB4423B
:100FD0007FF747AF07B0BDE8F08F00001402002094
:100FE00048020020D42E0020024A1268D0841185C5
:100FF000704700001402002010B5002001F02AFD07
:101000006FF07F4001F02AFD012001F05FFD00201C
:1010100001F064FD002001F06BFD002001F026FDD1
:101020000448006801F024FDBDE81040002001F0F4
:1010300029BD0000100200202DE9F04102460025E4
:101040000026002000230024002791F803C00CF0A4
:101050000F0591F803C00CF0100CBCF1000F03D089
:1010600091F802C04CEA050591F800C0BCF1000FF0
:1010700031D0146800202BE04FF0010C0CFA00F383
:10108000B1F800C00CEA03069E4220D183004FF065
:101090000F0C0CFA03F7BC4305FA03FC4CEA0404FA
:1010A00091F803C0BCF1280F06D14FF0010C0CFAE7
:1010B00000FCC2F814C00AE091F803C0BCF1480F6C
:1010C00005D14FF0010C0CFA00FCC2F810C0401C16
:1010D0000828D1D31460B1F800C0BCF1FF0F34DD93
:1010E000546800202EE000F1080C4FF0010808FAC7
:1010F0000CF3B1F800C00CEA03069E4221D1830034
:101100004FF00F0C0CFA03F7BC4305FA03FC4CEA52
:10111000040491F803C0BCF1280F05D100F1080CBC
:1011200008FA0CF8C2F8148091F803C0BCF1480F1B
:1011300007D100F1080C4FF0010808FA0CF8C2F8CA
:101140001080401C0828CED35460BDE8F0810246D0
:10115000002093680B400BB1012000E00020704795
:1011600041617047016170472DE9F04FDFF828B108
:1011700091B04FF0FF35DBF80030B3F92210069143
:10118000DE69B3F924A0F469A189814206D8E28915
:10119000824203D3471AD4F8008012E0D4E90181D7
:1011A000002970D00A8882426DD84D8885426AD362
:1011B000801A82B2486800EB8200B0F90070B0F982
:1011C0000250781C5FD0307EA27C014600FB02F901
:1011D000207CCDE90810B3F92A60304603F0EAFD1F
:1011E000C0B20E90DBF8001007FB0980A37C8A6B6D
:1011F0000127CDE90402CDE90273C869DDE90832AF
:10120000C17E807ECDE900015146069803F00AF8C0
:10121000681C18D046F0020003F0CCFDDBF800009B
:10122000A37C05FB0981826BCDE90273CDE9041231
:10123000C069DDE90832C17E807ECDE900015146FA
:10124000069802F0EFFFDBF800005D46C069417EC2
:10125000007E814214D9022E12D086F0040003F0E1
:10126000A9FD2868C069027EC37E857E02FB03A1BA
:10127000437E099A0698534402FB050203F060F985
:101280000E9803F097FDDBF80000627C418C11445E
:10129000418411B0BDE8F08F1402002004480068BA
:1012A000C069C06909B1027C0A60407C70470000D7
:1012B00014020020022008807047C06982898A4297
:1012C00002D8C2898A4210D2806880B102888A42DC
:1012D0000DD843888B420AD3406800EB8100A0EB15
:1012E0008200B0F90000002801DB012070470020D7
:1012F000704700002DE9F0432F4C034687B020686B
:101300001946B0F92A80C069C06900F082F8002847
:101310004ED041680088181A01EBC0054046AE78EF
:1013200003F048FD814620686A680123816BCDE99E
:101330000236CDE90421C169CB7E8A7ECDE9002346
:101340000B7EB0F924102A78B0F9220002F06AFF6F
:101350002068C069477E067EB7421DD9C07E4743DC
:101360004643B8F1020F17D000F080FE804600F02F
:1013700065FE01F073FB21682A78CB69B1F9220080
:10138000B1F92410DB7E02FB0302CB19314403F0D8
:10139000D7F8404601F062FB484603F00BFD206899
:1013A0006A78C369B0F922109B7E02FB0311418465
:1013B00007B0BDE8F08300001402002030B50E4CE9
:1013C00005460B4620682946C069C06900F021F82F
:1013D000002810D04168008824682A1A0120E46996
:1013E00000EBC200085CA47E6043002B03D011F820
:1013F00032106143196030BD1402002001200880C2
:10140000704700B5C06900F004F8002800D0012042
:1014100000BD06E002888A4202D842888A4202D28F
:1014200080680028F6D17047052809D2DFE800F06F
:1014300003040506070003E002E001E000E000BF4E
:1014400000BF704710B508F053F80448016A04481B
:101450000068C16600F10801416110BDBC010020B7
:10146000140200202DE9FE4F05460C9C0E464FEA63
:101470004400A2EB050198461746091A61D4A8EB6F
:101480000601081A5DD4DFF8C0A04FF00009DAF8B1
:10149000000090F8711019B910F8709F04210170C4
:1014A00005F032FD054405F03DFD064405F02CFD38
:1014B000074405F037FDDAF8002000EB080192F848
:1014C000710030B992F870004543464347434143A9
:1014D000444392F870007F1E00EB07084718761E01
:1014E000284600F033F8ADF80400404600F02EF82E
:1014F000ADF80800304600F029F8ADF8060038468F
:1015000000F024F8ADF80A0001A805F037FD0EE060
:101510004146284600F06EF83B4642463146284692
:10152000009407F003FEFFF78DFF05F0CDFC0028C7
:10153000EED1DAF8000090F87110002901D180F89E
:101540007090BDE8FE8F0000140200200449096875
:1015500091F8701009B190FBF1F000B270470000F3
:10156000140200202DE9F0411E4C05460E4620686D
:10157000002768B903F08BF8E06100F097F820606D
:1015800068B304F1240118480860084602F00CFA18
:10159000002D00DA0025E169731B4A1E20469342A4
:1015A00001DD6E18761EAE4201DA2E4601270F4C81
:1015B0002268D16E4B68836301620A490C4B343157
:1015C0000B60D16602C862C006F034F9FFF7DAF8A2
:1015D000044821682C3048613846BDE8F081012775
:1015E000D6E70000BC010020719B00081402002017
:1015F000B18A0008044A126892F8702090FBF2F059
:1016000091FBF2F1FFF7AEBF140200200249096816
:1016100081F87000FFF7B6B814020020002801D04E
:1016200006F0A8B8704738B50546FFF7F7FF040085
:1016300009D000F0AFF82A460021009002F042FAEB
:10164000684600F0D7F8204638BD0000024A106016
:1016500021F0030050607047502E002010B5002884
:1016600014D004460A48006B10F8341000290DD03D
:1016700002290BD2042101EBC4014158486806F04D
:101680003DF82046BDE8104008F0AABB10BD0000A0
:10169000942D0020002805D0034A916B016001B110
:1016A0004860906370470000942D00202DE9F041C0
:1016B000044608F07FF92648E41C24F00305C16BBA
:1016C0002D1DA94200D90D46846B13E054F8042C5B
:1016D000AA420ED184B1216809B162684A6061688A
:1016E00009B122680A60826BA2422ED1216881630F
:1016F0002BE02468002CE9D18046416B80680F18EC
:1017000057F8040C3E1A306838B1002008F0C2FBCC
:1017100057F8040C3E1A3068B8B97068A84214DB58
:101720003044441B304608F06DFBD8F80810491BC4
:10173000C8F80810D8F810102944C8F810107068BC
:101740003146401B05F0DAFF20C42046BDE8F08199
:10175000942D002010B5002408F02CF90C490F201E
:1017600001EBC002126C1AB101EBC000006C08E082
:10177000401EF5D508E04168A14200D90C468068BA
:1017800010B180680028F6D1A4F10C0010BD000053
:10179000942D002005498A69521C8A61096B01EB6E
:1017A000C0010A78521C0A7000F03CB8942D002049
:1017B00010B5FFF7CFFF64220649B0F5800F04D9BA
:1017C00090FBF2F0C969484310BDC9694143B1FBC0
:1017D000F2F010BD942D00200549102805D94A6863
:1017E000B0EB520F02D3500800E010208860704721
:1017F000502E00200A4902680B6B52F8082C03EBAC
:10180000C2021378022B03D38B690BB15B1E8B6171
:101810001178491E117000210160084670470000D0
:10182000942D0020002806D00349042202EBC000BA
:10183000096B085808307047942D002010B51368C4
:101840005C1814600022227005E000BF00F0010265
:1018500030325A5440080A00A1F10101C9B2F5D151
:1018600010BD0000F0B52D271C68B0F1004F08D066
:10187000002500280DDA661C1E60277040420124F6
:1018800008E0661C01251E606FF000402770491EAD
:1018900001E00024091BC9B22AB3491EC9B222E0E3
:1018A0000C46491EC9B2944205D1124C27781C68D7
:1018B000661C1E602770104C54F8216090FBF6F4F3
:1018C000E4B20A2C11D804FB160011B90DB1641C46
:1018D000E4B20A2C02D10124491CC9B21E6830347A
:1018E000771C1F6034700029DAD119680020087055
:1018F000F0BD000008020020181D010810B5136893
:1019000008290FD85C18146000222270064A04E0EF
:1019100000F00F040009145D5C540C00A1F10101FA
:10192000C9B2F5D110BD0000401D010810B5C2B20A
:10193000CBB2D21A02D5C2F1000212B293B2C0F3F6
:101940000722C1F3072403FB03F3121B01D5524204
:1019500012B2000C92B2A0EB114002FB023200B2B4
:10196000002801DA404200B280B200FB002010BD26
:1019700010B50021084600F0B3FB40F6FF7250425C
:10198000BDE8104013460146AFF300802DE9FC414D
:1019900007461C4615460E46042003F00BFA804607
:1019A0001148C068C16C006D0F4406440D440444E6
:1019B000ADF80070ADF80450ADF80260ADF8064027
:1019C000684605F0DBFA07E023462A4631463846EA
:1019D00002F0B6FD05F078FA0028F5D1404603F094
:1019E000E9F9BDE8FC8100000802002070B5054659
:1019F0000C46164615B1012D0ED103E0207801F0FA
:101A000091F809E020780549087008460078012817
:101A100001D1FFF7ADFF00BF00BF70BD1500002072
:101A20002DE9F0411C4616460D460746022B02DB07
:101A30000020BDE8F0811C20FFF738FE0028F8D018
:101A40000DB105610AE0094A52F8241009B905E010
:101A500011460A68002AFBD1096901618461868206
:101A6000002101604160C0E90217E2E72C0200207A
:101A700070B51D46FFF7D4FF040001D000F00EF84A
:101A8000E068006820B90348006800EB85008465C1
:101A9000204670BD14020020FFF7FCBD70B590B366
:101AA0008269022A30DA1C4C54F8221019B944F821
:101AB00022002FE019464B68002BFBD106E0CB68D3
:101AC000C5681B682D68AB4203DD09680029F6D1A3
:101AD0001AE0C1B1CB68C6681B683668B3420CD146
:101AE000838A012B05D008E01946DB681B68AB42EE
:101AF00003DB0B68002BF7D129B14B6833B11860B9
:101B00004A68426004E0FFE7012070BD44F822000B
:101B100048600160002070BD2C02002008F0EABC83
:101B2000022801DB00207047054951F8200004E03D
:101B3000C16809680029F6D000680028F8D170470C
:101B40002C02002070B5044601F028FA051908E0BF
:101B500000F0EEF9052C01DD052000E0204601F043
:101B60000FFA01F01BFA2C1A002CF1DC70BD30B515
:101B70008BB014460D46CDF824D009AA1946FFF7BC
:101B80005DFE22462946684600F0D0F80BB030BD15
:101B900010B500F07DFA08490A68B2F92410091A54
:101BA000D069437E481E0344B2F92200BDE81040CC
:101BB0004FF47A62FFF7EABE14020020002200F020
:101BC00011B87FB51E4614460D46CDF80CD003ABB8
:101BD00000223146FFF746FE22462946684600F0BD
:101BE000A5F87FBD1FB503ABCDF80CD0FFF73AFECB
:101BF000684600F01BF81FBD1FB503AACDF80CD036
:101C0000FFF77CFE684600F011F81FBD7FB5144653
:101C10000D46CDF80CD003AA1946FFF76FFE2246F9
:101C20002946684600F082F87FBD00002DE9FC4798
:101C300006005BD000F022FA3B4C81462068B0F9E8
:101C4000228000F025FA216807468A8CD01B888400
:101C500041E000BF47F6FF71304601F073FD824658
:101C60000146304601F044FD2168054691F82C00FC
:101C700000F0030001283FD0022839D000204A8C10
:101C8000101A4884ADF800006A1E1044ADF8040034
:101C9000888CADF80200A9F101010844ADF80600F6
:101CA0006A465146304601F005FB2168BDF8020046
:101CB00088845146304601F023F8064430780A28DB
:101CC0001CD00D281AD0BDF8000021682844488493
:101CD000307818B1761C30780028BBD12068818C10
:101CE00039448184818D21F003018185BDE8FC8721
:101CF00005EBD5704010C2E72846C0E7206890F891
:101D00002C1001F0030101290BD0022909D0018C0C
:101D1000418431780A29DBD1828C02EB090181846C
:101D2000D6E7A0F82280F4E714020020024B1B68DB
:101D300059849A84FFF77ABF1402002010B5FFF788
:101D4000F5FFBDE81040FFF723BF2DE9FF4F85B039
:101D500090468A46070078D00C68DAF8046021B211
:101D600030B2401A401C029000F088F9054618F085
:101D70000C0F1ED03846089A029901F0DCF808F0E2
:101D80000C01042904D0082902D00C2911D104E047
:101D9000311400FB1510401C09E02114C1EB264250
:101DA00000FB1520401C00EBD07001EB600060F3DD
:101DB0001F44504600F050FEA5F1010B0490384638
:101DC000089A029901F002FE03904FEA244909EBB8
:101DD0000B0060F31F46CDE900463846039901F039
:101DE00087FC18F003010ED0012928D002290ED15A
:101DF000BAF90420BAF90010521A101A00EBD07088
:101E000001EB600001E0BAF80000ADF800006A469E
:101E10003846039901F04EFA3846089A029901F0C3
:101E2000CBFD074409EB050060F31F443878002818
:101E3000C5D1049809B0BDE8F04F00F00DBEBAF866
:101E40000410081A401CE0E7FFE709B0BDE8F08F76
:101E50002DE9F04F0C46184987B00D68DDE911985F
:101E6000E96CDDF840A00F18286D8D180619C4180C
:101E7000ADF81470ADF81850ADF81660ADF81A4012
:101E800005A805F07BF8002812D04FF0000B0B4995
:101E9000CDE900A9CDE902812B462246CDF810B04C
:101EA0003946304606F074FD05F00EF80028EED1F4
:101EB00007B0BDE8F08F000014020020ED440008D8
:101EC0002DE9F0410B4C2568EC6C2718286DA518FE
:101ED0004618C418002005F051F807E023462A46AA
:101EE00031463846FEF75EFD04F0EEFF0028F5D1DE
:101EF000BDE8F081140200202DE9F04107460B48AF
:101F00000E460068C16C006D8D18C418002005F0E5
:101F100035F807E023462A4631463846FEF7E2FE0A
:101F200004F0D2FF0028F5D1BDE8F08114020020B2
:101F300010B5002400E0012400F004F80028FAD1D4
:101F4000204610BD064810B50068002410B1804737
:101F500000B1012404F0D0FC00B10124204610BDE2
:101F6000340200202DE9FC47164C81468846206843
:101F7000C16C006D8E18C518002004F0FFFF00280A
:101F80001ED0114F20681121407C57F8200001908D
:101F9000C068426A01A890475FEA000C06D0334649
:101FA0004246494600950198E04705E02B463246F7
:101FB00041464846FEF728FF04F086FF0028E1D19D
:101FC000BDE8FC87140200202C0200202DE9FC4112
:101FD0000F4C2568EC6C2718286DA5184618C418F6
:101FE000ADF80070ADF80450ADF80260ADF80640F1
:101FF000684604F0C3FF07E023462A4631463846C8
:1020000002F09EFA04F060FF0028F5D1BDE8FC81E3
:1020100014020020B0F90630B0F90420B0F9021023
:10202000B0F90000FFF7D2BF034951F82000C168A2
:102030008A6A0821104700002C02002010B502F027
:10204000AFFABDE8104002F05FBB0000024909682A
:10205000C9694A680021104714020020024A126828
:10206000D2695268104700001402002010B502F037
:102070009FFABDE8104002F047BB0000024800682C
:10208000C069407E704700001402002001F076BB5A
:102090000A490020096891F82C2002F00C02042A59
:1020A00007D0082A01D00C2A02D1C869007E400856
:1020B0007047C869007E401E70470000140200206F
:1020C000024951F820000069006870472C02002086
:1020D000024951F820000069406870472C02002036
:1020E00070B50D4607F0A4FB0446284607F0A8FB90
:1020F000204370BD124810B5016821F00101016054
:102100001048012181601049016000680F49884230
:1021100000D0FEE701F0B4F80D492E20087000F061
:1021200043FF0C4807F0F8FB09F044FA044600218D
:10213000084600F0AFFC04F031FC204610BD000062
:10214000002000E000300240C2A507F4CDB5E8B59C
:10215000080200205C2E00201CB520B90C48006845
:10216000006E002812D0FFF715FB00904469684606
:10217000FFF740FB002C09D02046FFF70BFB019036
:1021800081688968884701A8FFF734FB1CBD0000FF
:102190001402002001490A4600F002B801F0FFFFD6
:1021A0002DE9F04387B015460C465FEA000842D09F
:1021B000002000F05BFC814620480068066E404627
:1021C000FFF7E8FA00900068806900F031FC0746EC
:1021D00040F6FF70001904D10098B0F90440B0F93E
:1021E00006500098611E0289ADF804401144ADF814
:1021F00008104189681E0844ADF80650ADF80A0081
:1022000004F0EAF96846FFF7F5FA01A804F0B6FE13
:1022100006E02A462146404600F0F8FA04F054FE53
:102220000028F6D1384600F003FC304600F048F9AB
:10223000484600F01BFC07B0BDE8F0831402002004
:102240002DE9FE4F834619488A46194900680C9EBD
:102250009846407C9146002751F82040E168096883
:10226000042903D02468002CF8D100E014B9FFF74A
:1022700057FC04460121E068C26A204690470500E9
:1022800011D02469A0688047401C02D1094C46F057
:1022900001060096CDE9015443464A465146584648
:1022A00000F09AF907463846BDE8FE8F1402002078
:1022B0002C020020841D010838B5040018D00D48F8
:1022C0000068006EA04201D100F0A8FB2046FFF795
:1022D00061FA0090406908B100F01BFE00980068A8
:1022E000FFF7DAFB6846FFF785FA2046FFF7B6F9F5
:1022F00038BD0000140200202DE9FF4F83B0454C8B
:10230000DDF840B098468A4607002BD002A901A804
:10231000FFF7BCFEB7F90060002E00DA0026B7F91F
:102320000250002D00DA00252068A146407C02F012
:10233000ABF901990144491EB7F9040007F0CDFB40
:102340000446D9F80000407C02F0A4F90299014447
:10235000491EB7F9060007F0C0FBA71B7F1C441BF2
:10236000641C0BE0206800263546407C02F08CF9A6
:1023700007462068407C02F08DF90446B8F1000F52
:1023800001D1C4F10008002F01DD002C03DC002086
:1023900007B0BDE8F08F43463A4629463046CDF8AF
:1023A00000B0FFF74DFF5FEA000909D000F054F8D4
:1023B0008046484600F084F80027DFF85CB01FE054
:1023C0005146059888470120E2E7E11B414502DAC2
:1023D000484600F05FF83FB1EA193146484600F040
:1023E00099F84846FFF7B8FE514605988847DBF84C
:1023F000001009B1002088474846FFF7CBFE47444C
:10240000A742E2DB4846FFF757FF002000F058F8EC
:10241000BDE70000140200201003002038B500249E
:1024200060B1FFF7B7F900900068006980688047E5
:1024300002F0E4FE04466846FFF7DCF9204638BDAA
:1024400038B5FFF7A7F900F1180400906846FFF7C8
:10245000D1F9204638BD000038B5002418B9074826
:102460000068006E38B1FFF795F90090B0F90A40A6
:102470006846FFF7BFF9204638BD0000140200206F
:1024800010B505F077FA002803D0BDE8104000F041
:102490006DB810BD38B50C4620B908480068006E0C
:1024A00000280AD0FFF776F90090B0F90A10A1428F
:1024B00000DD44816846FFF79DF938BD1402002015
:1024C000F8B5134E05003068046E0CD00CB100F066
:1024D000A5FA04F06FF92846FFF75CF9009031681F
:1024E0000A6E1AB106E000F099FA0EE0D1E9022373
:1024F000C1E919230D660068FFF7D0FA6846FFF7B7
:1025000079F902F0E3FC02F035FC2046F8BD00004A
:10251000140200207CB515460C4620B9124800680C
:10252000006E00281FD0FFF735F92DB20090C5804E
:1025300024B2848002F01EFC0098406980B1FFF74D
:1025400029F9009A0190B2F908108180B2F90A20A5
:10255000C28011B10AB10480458001A8FFF74AF991
:102560006846FFF747F97CBD1402002001490A467E
:1025700000F002B801F0FFFF7FB515460C460600DB
:1025800028D0FFF707F940F6FF710190091903D130
:10259000B0F90440B0F906500289611E1144ADF84B
:1025A0000840ADF80C104189681E0844ADF80E00D3
:1025B000ADF80A5001A8FFF71DF902A804F0DEFCEF
:1025C00006E02A462146304600F008F904F07CFC7B
:1025D0000028F6D17FBD00002DE9FF4FDFF8E0B005
:1025E00083B01C46DBF80010DDE91060924600273E
:1025F0004B7C3A461299FFF713FA05005DD0286923
:102600008068804702F0FAFD81460AFB09F0C01D90
:102610004FEAD008FFF7CCF8F10705D1C11700EB5E
:102620009170801000EB4000002C06DC1838B0FBE5
:10263000F8F06442A04200DC0446F00707D10090A5
:10264000DDE903012346524600F0DAFB0746002C81
:1026500003DC2846FFF720FA2FE004FB08F01830CF
:10266000F10702D0FEF7DAFF01E0FEF7DCFF06001B
:102670001CD0FFF78FF801900560039981800499C1
:10268000C180A0F808A04481C0F80C80C0E904977C
:1026900001A8FFF7AFF81298AE602861DBF80000E0
:1026A000407CA861304607B0BDE8F08F2846FFF7B0
:1026B000F3F917B13846FEF7D1FF0020F3E7000029
:1026C000140200202DE9F74F92B090461298FFF7C0
:1026D00061F80B90B0F908100691B0F90A100D914D
:1026E00000680069D0F804B00BA8FFF783F8384CF5
:1026F000384D2068407C55F82000C1688A6A08215E
:1027000090478146182801D34FF020092068407C6B
:1027100055F820000069079003C80C902E488142AC
:1027200001D0012000E000201090002000F03DFCCE
:10273000002849D10026DDE91207B2460FAB069CFE
:102740004546761C0193FFF77BFE014604FB0AF029
:1027500001EB8002234629463846CDF800B000F050
:1027600001FE050030D01098D0B1DDE906134A46CD
:10277000284600F0CBFC98B9DDE906702C46D0F86D
:1027800010C0BCF1000F05D0294604233A46084684
:10279000E04705E00C992068884701C47F1EF9D105
:1027A0000020CDE90305059001200090CDE9010945
:1027B0004146034608F10108069A139801F032FDDC
:1027C0000D98401E0D90B6D115B0BDE8F08F0000F9
:1027D000140200202C02002027470008F8B51546F7
:1027E0000E460746FEF7D6FF009000681621C06827
:1027F000426A0020904704466846FEF7FBFF002C23
:1028000003D02A4631463846A047F8BDF8B51546EC
:102810000E460746FEF7BEFF009044696846FEF785
:10282000E9FF3846FFF7FAFD0346082800DD2CB122
:102830002A463146384607F091FEF8BD2A46314611
:10284000384608F023F8F8BD10B5002821D009B3A8
:102850000AB3B1F90040B2F900309C4200DA2346D5
:102860000380B1F90240B2F902309C4200DA2346FB
:102870004380B1F90440B2F904309C4200DD2346A4
:102880008380B1F90610B2F90620914200DC1146AE
:10289000C18010BD11460A6802604968416010BDE0
:1028A00000280BD003880B4403808388194481805F
:1028B000418811444180C1881144C18070472DE98D
:1028C000F04781460C4692462778A078617800EB65
:1028D000012085B22079E17800EB012086B2607991
:1028E0000006A17900EB0140E17900EB0120217A9B
:1028F00000EB010837B1012F05D0022F0AD0032FBA
:1029000016D10EE014E0052332B229B24046FFF79B
:1029100058F90DE0052332B229B24046FFF727F9F6
:1029200006E0052332B229B24046FFF76FF900BF37
:1029300000BFBDE8F087000070B5094C0020D4E965
:1029400000218A420AD0D2E90056104606F08EFFD6
:1029500020603146284604F003F9012070BD0000D4
:10296000F80200202DE9FC41154DDDE908742D68C1
:10297000B5F90860864200DD3046B5F90C60964234
:1029800000DA3246824219DBB5F90A608E4200DD78
:102990003146B5F90E509D4200DA2B468B420DDBD5
:1029A00000E02C46E5682D6825B1042D02D025688D
:1029B000002DF6D1CDE9007402F0BCF8BDE8FC8131
:1029C00014020020B0F90220B1F906309A4213DC5B
:1029D000B1F90220B0F906309A420DDCB0F90020BE
:1029E000B1F904309A4207DCB1F90010B0F90400E3
:1029F000814201DC012070470020704701460248F7
:102A000078220068FDF7B0BB14020020024978224A
:102A10000968FDF7A9BB00001402002010B502F000
:102A20005DF902F053FABDE8104003F0D5BD000097
:102A300070B504460548022C0068457C02D24474F7
:102A4000FFF7ECFF02480460284670BD1402002026
:102A50007802002002F064B904F070B902F098B96D
:102A600001498860704700000802002002F0A2B906
:102A700003490968CA6900B1C8611046704700007F
:102A800014020020024909688A7E88761046704741
:102A900014020020094A30B41080094A1180094A02
:102AA0001268537C084A52F82330DA68146A0A46DE
:102AB000A446014630BC184660470000440200208E
:102AC00046020020140200202C020020024909685E
:102AD0000A7E0876104670471402002003490968F0
:102AE000B1F92C20888510467047000014020020A0
:102AF00003490968B1F92A2048851046704700004B
:102B000014020020044910B50968054C034B8A7C67
:102B100023608874104610BD14020020313A00086A
:102B20003C02002010B50446082C1AD2DFE804F05D
:102B30001904070A0D10131603F084F811E003F0CE
:102B4000CBF80EE003F0A6F90BE002F0D1FF08E0AD
:102B500003F058F905E003F0E3F902E003F006F9A9
:102B600000BF00BF6CB903F06DF803F0B5F803F0D7
:102B700091F902F0BDFF03F045F903F0D1F903F03C
:102B8000F5F810BD02480068002800D000477047E3
:102B90000403002002498A6802B98860FFF7F2BF87
:102BA000F802002010B5040009D007F045F92046CE
:102BB00007F078FC2046BDE81040FEF74FBD10BD81
:102BC00038B50C4660B1FEF7E5FD009080892042E3
:102BD00001D0012400E000246846FEF70BFE00E06F
:102BE0000124204638BD000038B505460020286085
:102BF0000648046844B12046FEF7CCFD0090006909
:102C000028606846FEF7F6FD204638BD3C030020EC
:102C100038B504004FF000000D46086011D0204682
:102C2000FEF7B8FD0090846844B16846FEF7E2FD07
:102C30002046FEF7AFFD0090006928606846FEF769
:102C4000D9FD204638BD00002DE9F04705460C4669
:102C50009146052D33D2DFE805F003141D242B0027
:102C60006078217800EB012086B2E078A17800EB53
:102C7000012087B2A0463A4631464046FFF75EF84B
:102C80001DE026780F4951F82600FFF7E7FEFEF712
:102C90006FFE14E026780C4951F82600FFF7E8FE95
:102CA0000DE02678094951F82600FFF721FF06E0DC
:102CB0002678074911F82600FFF724FF00BF00BF60
:102CC000BDE8F08770C70008A4010020DCC7000839
:102CD000F0C700082DE9F041084E04460568306849
:102CE0000168284688470746306841682846884773
:102CF000284420603846BDE8F0810000180200201A
:102D00002DE9F0410C4606460025064F05E03868DF
:102D100041683046884706440544641EF7D2284679
:102D2000BDE8F081180200202DE9F0411E46069C06
:102D30001746884605463A46A8687F1C3346D0F8B1
:102D400004C041462846E047641EF4D1BDE8F08146
:102D500070B5B0F90040091BB0F904408C422CDD7D
:102D600000F11404B0F902500069521B02FB00404C
:102D7000CA1800EBE104521ED010B0EBE10501F0DF
:102D800007034FF0FF0102F0070221FA03F0C2F13E
:102D9000070201FA02F1CEB221780FD001436D1E75
:102DA00004F8011B002D05DDFF2229462046FDF712
:102DB000FBF92C4420783043207070BD3040014333
:102DC000217070BD10B5B0F90030B0F90240C91AD9
:102DD00000F114030069121B02FB003000EBE1005C
:102DE00001F0070302788021D9400A43027010BD28
:102DF000B0F90610026951431430FDF7DCB9000048
:102E00002DE9F843804602F10F000011470003FB53
:102E100007F01C46154689461430FEF704FC0600F0
:102E200013D0FEF7B7FC0090A0F80080A0F8029045
:102E30008580C480064981600121818107616846DF
:102E4000FEF7D8FC3046BDE8F8830020FBE7000021
:102E5000101E010870B5B0F90660B0F904400B68A7
:102E600000F11405964220DD0069A34202FB0050E8
:102E700000EBE30219DAA4F101044FEAE400A0EB4D
:102E8000E30512F8010B03F0070400FA04F0C4B2E2
:102E900008E055B112F8014B03F10803A5F1010553
:102EA00023F00703002CF4D008E0002070BD00BF21
:102EB0004FEA44604FEA106403F101032006F7D59E
:102EC000FF2C0AD0184605E04FEA44644FEA146428
:102ED00000F101006606F7D400E0D81DC443640782
:102EE00006D007E012F8014BFF2C0FD100F10800CB
:102EF0006D1EF7D5A0EB030000F101000B6070BD63
:102F00004FEA44624FEA126400F101002206F7D44E
:102F1000F0E738B50546FEF73DFC00908189491E73
:102F20000CB284816846FEF765FC002C02D128466D
:102F3000FEF794FB38BD2DE9F04116460F460546D5
:102F4000002432463946284600F036FD054408B1D3
:102F5000641CF6E72046BDE8F081000010B54FF490
:102F600020510548FEF772FB8020FEF735FC034830
:102F7000FFF776FD10BD000098040020941A0108A8
:102F8000044A1268111800BF024A12688A1A002AFD
:102F9000FADC7047480000207047000001480068D4
:102FA000704700004800002070470EB508B102AA23
:102FB00000E00022002301A9684600F051FB0EBD8D
:102FC000074910B5CC6818B10120C860801E03E025
:102FD0000020C8606FF07F4000F0ECFF204610BD7D
:102FE0001C03002010B5082A0EDC0346012A1AD063
:102FF000022A58D0042A78D010F8042B03F8012BA9
:10300000491EF9D1012010BD102A0ADC0222022A31
:10301000F8D1024630F8043B22F8023B491EF9D1B0
:10302000F0E7002010BD10F8042BD207120E491E45
:1030300034D010F8044B491E04F0010442EA841213
:103040002CD010F8044B491E04F0010442EA44124B
:1030500024D010F8044B491E04F0010442EA041283
:103060001CD010F8044B491E04F0010442EAC402CB
:1030700014D010F8044B491E04F0010442EA840203
:103080000CD010F8044B491E04F0010442EA44023B
:1030900004D010F8044B04F00104224303F8012B80
:1030A0000029C0D1AEE710F8042B9207120E491E7A
:1030B00015D010F8044B491E04F0030442EA041230
:1030C0000DD010F8044B491E04F0030442EA8402B8
:1030D00005D010F8044B04F003042243491E03F802
:1030E000012B0029DFD18DE7FFE710F8042B120731
:1030F000120E491E05D010F8044B04F00F042243B1
:10310000491E03F8012B0029EFD17BE72DE9F0419F
:103110001E680D460446082A09DC0746012A21D00C
:10312000022A62D0042A7CD0082A1AD195E0102AFB
:1031300003DC02200228F8D102E00020BDE8F08183
:10314000D3F810C02746BCF1000F04D00A46214630
:10315000022308468AE001CCB04727F8020B6D1E17
:10316000F9D18BE001CCB047C0074FEA10686D1E63
:1031700036D001CCB04748EA801000F0FF086D1E41
:103180002ED001CCB04748EA401000F0FF086D1E79
:1031900026D001CCB04748EA001000F0FF086D1EB1
:1031A0001ED001CCB04748EAC00000F0FF086D1EF9
:1031B00016D001CCB04748EA800000F0FF086D1E31
:1031C0000ED001CCB04748EA400000F0FF086D1E69
:1031D00006D001CCB04740EA080000F0FF086D1EA1
:1031E00007F8018B002DBDD148E001CCB047800726
:1031F0004FEA10686D1E18D001CCB04748EA0010A5
:1032000000F0FF086D1E10D001CCB04748EA8000E6
:1032100000F0FF086D1E08D001CCB04740EA08005E
:1032200000E007E000F0FF086D1E07F8018B002D9D
:10323000DBD123E001CCB04700074FEA10686D1ED8
:1032400006D001CCB04740EA080000F0FF086D1E30
:1032500007F8018B002DEDD110E0D3F810C0BCF1C0
:10326000000F05D00A46014601233846E04705E035
:1032700001CCB04707F8010B6D1EF9D101205DE7C5
:103280000A4810B5816900290ED101218161FFF73B
:1032900065FE01F083FE054905481C310860BDE864
:1032A0001040084600F080BB10BD0000080200205E
:1032B000B99B00087CB5064628480D46006868B1F1
:1032C000002003F05BFE06E06A462946304604F023
:1032D000FBFB03F0F9FD0028F6D17CBD10680090DF
:1032E0001F4C506801902268BDF8000032F84C1F56
:1032F0000844ADF80000BDF8020091880844ADF81C
:103300000200BDF8040011880844ADF80400BDF8BF
:10331000060091880844ADF80600684603F02EFECA
:103320000EE000BF2068BDF800106A464184BDF879
:10333000021081842946304604F0C6FB03F0C4FD28
:103340000028EFD1206830F8221F428D891A0180B1
:103350004188C28D891A41807CBD00004002002056
:10336000140200202DE9FF4F00208BB004460146D7
:10337000009019981D461646016007AB002203A96C
:1033800002A800F06DF918B100200FB0BDE8F08F71
:103390000798854200DD05465C4F0A955C49386810
:1033A000407C51F82010049109690691FEF73CFE1B
:1033B00005903868407CFEF78BFE5649814688426E
:1033C00004D05549894501D0012000E00020099032
:1033D00001CE1899884782465FEA106B71D0009839
:1033E00070BB0B9800EB040848480068B0F908006F
:1033F000404503DDA0EB0807804600E00027029966
:10340000049801EB840101EB8701CDE90010DDE9AF
:103410000A010A180C9B0892521E19464046FFF7F3
:10342000A1FA01200090059818280ADA0298DDE92F
:10343000052300EB840000EB8700E91B00F070F827
:1034400010E0099870B1029800EB840000EB870748
:103450000898A0EB080849463868884701C7B8F1C2
:103460000108F8D12D48C06960B3DDE9020700EB1F
:10347000840007EB8402CDE90202284C361F2B465C
:10348000E46930460299A047FF203168B0EB116F24
:1034900002D10299096804E0029A1268B0EB126F37
:1034A00001D1039A11600299361D091D02910399F9
:1034B000091D03916D1EE8D1199901200397086039
:1034C0001DE01EE0FFE7BBF1FF0F0ED00298CBF12D
:1034D000FF0250F82410504600F00EFA039941F80C
:1034E000240019990120086005E00298039950F81A
:1034F000240041F82400641C6D1E7FF469AF03981A
:1035000043E7039941F824A0EBE7000014020020F0
:103510002C0200202747000825470008C802002089
:103520002DE9F05F0C1E16DD5E68014600EB840598
:10353000082A12DC611E012A28D0022A48D0042A57
:103540006AD0082A07D1071917F8010DB04745F8C6
:10355000040D641EF8D1BDE8F09F102AFBDC0222A6
:10356000022AF8D15F693FB12246BC46BDE8F04F60
:1035700002235DF804EB604701EB440737F8020DC6
:10358000B04745F8040D641EF8D1E4E700EBE10014
:103590002D1F10F801A9814601F00707802020FAAD
:1035A00007F800BF0AEA0800C7F10701C840B047A2
:1035B00045F804093FB17F1E4FEA4860000E80467F
:1035C000641EEFD1C7E7072719F801A90120F6E724
:1035D00000EBA1002D1F01F0030710F801A981469F
:1035E0007900C02020FA01F84FF0060B0AEA080023
:1035F000ABEB4701C840B04745F804093FB17F1E17
:103600004FEA8860000E8046641EEFD1A3E70327CF
:1036100019F801A93846F6E700EB610001272D1FD4
:10362000A74310F801A98146B900F02020FA01F85B
:103630004FF0040B0AEA0800ABEB8701C840B04723
:1036400045F804093FB17F1E4FEA0870000E80461E
:10365000641EEFD17FE7012719F801A90F20F6E7D3
:103660002DE9F047204C06461F46A0699046894642
:10367000002540B90120A06104F120011B48086029
:10368000084600F091F9606910B901F000F8606136
:1036900007B138604EB1A06830B960698000FEF7AC
:1036A00005F8A06000B901253060B9F1000F0AD01B
:1036B000E06830B960698000FDF7F8FFE06000B9AC
:1036C0000125C9F80000B8F1000F0AD0206930B90F
:1036D00060698000FDF7EAFF206100B90125C8F8A4
:1036E00000002846BDE8F087C80200202D9C000895
:1036F00073B5124A01A900981268904700240090FF
:10370000C8B10F4900250968C969496959B10A68F2
:103710004AB1019990477CBD6846FFF7DBFA054640
:10372000FEF794FC04440198401E0190F4D528460D
:1037300000F032F8044420467CBD00005402002012
:103740001402002073B50D460098002490B10A4978
:103750000968C969496959B14A684AB12946904717
:103760007CBD6846FFF7B6FA20B10A2802D0641C77
:10377000AC42F6DB20467CBD14020020044AB2F9BC
:10378000002002600348B0F90000086070470000A4
:10379000440200204602002038B500246946009407
:1037A000FEF75CFC0099814200DD0C1A204638BD12
:1037B000B0F90030B1F90020934200DA0280B0F98C
:1037C0000230B1F90220934200DA4280B0F90430AD
:1037D000B1F90420934200DD8280B0F90620B1F9EE
:1037E00006108A4200DDC180704770B5B1F9004013
:1037F000B2F900309C4200DD23460380B1F902504B
:10380000B2F90240A54200DD2C464480B1F90460C3
:10381000B2F90450AE4200DA35468580B1F906109F
:10382000B2F90620914200DB1146C1809D4201DBC6
:10383000A14201DA002070BD012070BD014602489E
:103840000068407C00F002B814020020F8B50126A0
:103850000F46054602284BDA264C5FB3012F02D0F3
:10386000022F45D116E054F8250088B92846FEF706
:1038700057F90090B8B3C0680D21426A6846904776
:10388000020035D039460098904754F825000026AC
:10389000401C2BE0FEF744F9009020B3C0680D21D6
:1038A000426A68469047020022D039460098904705
:1038B00000261DE054F8250001280FD12846FEF708
:1038C0002FF9009050B1C0680D21426A68469047B8
:1038D000020003D0394600989047002654F825008E
:1038E00010B1012101E003E00021401A44F8250055
:1038F0003046F8BDF002002070B5FF23B3EB116F26
:1039000029D0C3B200F47F4500F47F04060E534370
:10391000554354435643C2F1FF00CAB202FB003282
:1039200001F47F4303FB005301F47F0505FB0044D2
:10393000090E01FB0065C2F307204FF47F4101EA45
:103940001322090201EA14214FF07F43104303EAD6
:1039500005430843184370BD2DE9F04F1546DDE9D6
:103960000CB90C4606464FF0000818E00B9F4FF0CC
:10397000FF0A01CE08CCAAEB106202FB09F2B2FBEF
:10398000FAF1CAB21946FFF7B7FF20F07F4001C530
:103990007F1EEED1099808F1010804EB8004D84598
:1039A000E4D3BDE8F08F000002494A6942604861F3
:1039B000704700000802002010B5044600F009F826
:1039C00001462046BDE81040FFF79AB9002306F0F3
:1039D000A9BD77B581B015460E466B46019806F035
:1039E000A1FD044601460198FFF78AF901990844B0
:1039F000019001A8FFF76EF90A2802D0012D02D02C
:103A000012E0641C10E020280ED1FEF71FFB0546D3
:103A100007E028440090641C01A8FFF75BF9202808
:103A200002D100988642F4DA04B0204670BD00004E
:103A300070B5234E3168B1F92240C969641E4A68E5
:103A4000002190473268251A6D1C907CC0070DD06C
:103A5000D06990F82010007E884200DC411EB2F947
:103A6000240022460144284600F0E0FC3168887CAE
:103A700080070DD5C869B1F9241010F8202F80787F
:103A8000401CA2EB500001442246284600F0CEFC28
:103A90003068817C490711D5C16911F8202F8978D8
:103AA000A2EB0101491E00D50021B0F924002246F5
:103AB00001442846BDE8704000F0B8BC70BD00006D
:103AC0001402002010B502E000F8011B521E0AB1DA
:103AD0008307F9D1930818D001EB014402F00302E7
:103AE00004EB042405E0046044608460C46010308A
:103AF0001B1F042BF7DA01E010C05B1E002BFBD16B
:103B000003E000BF00F8011B521E002AFAD110BDCD
:103B1000024600204FF080414318934201D8D21A48
:103B2000581840088908F7D1704700F5806000F008
:103B300001B8000010B50022C0F30B00B0F5006F13
:103B400002DDA0F500600122B0F5806F01DDC0F557
:103B5000006083110B4C00F03F00C0F1400134F8CD
:103B600013004843402906D004EB4303C1F1400150
:103B70005B8803FB010020308009002A00D040420E
:103B800010BD00005CC8000810B507230122022107
:103B90000848FCF735FD01210648FCF792FD00BFFF
:103BA00002210448FCF7F0FC0028F9D00148FCF79A
:103BB000E7FC10BD002401402DE9F0470024A24697
:103BC000A14606E0FFF7E0FF044409F1010000F020
:103BD000FF09B9F10A0FF5DB2046FCF798FB074611
:103BE000054A064BFCF710FB0546FCF79DFB80B22F
:103BF0008246BDE8F0870000E12879758E01893F93
:103C000000BFFEE704E00E4800880D48001D008854
:103C10000B48008800F002000228F4D009E00848B0
:103C2000008807481438008840F00100044914391E
:103C300008800348008800F010001028EFD070477B
:103C40001454004010B50549054800F0F9F818B1C2
:103C50000249034800F0E2F810BD00000004000132
:103C60000054004070B500240025274800F0FBF800
:103C700004462648844211D10420254908700020BA
:103C800024490870084602780078401C0B461870DA
:103C90002148815C1C4800F077F934E01B48801C07
:103CA00084421AD105201A4908701A4800781B4925
:103CB0000978884201DD002001E0164800781549A6
:103CC0000870084602780078401C0B4618701248AD
:103CD000815C0D4800F058F915E0102C05D1FFF774
:103CE00091FF00200A4908700DE00D4884420AD176
:103CF000054800F045F905460A48006818B128460D
:103D000008490968884770BD0054004082000600D9
:103D10001C000020250000200204002024000020B8
:103D200040000200200000200149086070470000A8
:103D30002000002070B505460C46142C00DD70BD37
:103D4000224629460348FCF70FFA0348047000BFD7
:103D5000F5E70000020400202400002000B587B031
:103D60000121480501F0E8FA0121082001F0F4FAE8
:103D70000121084601F0F0FAC020ADF81800032038
:103D80008DF81A001C208DF81B0006A92048FDF7AD
:103D900053F91F208DF8140000208DF815008DF8C0
:103DA000160001208DF8170005A801F049FA20201F
:103DB0008DF8140005A801F043FA0020ADF80800C2
:103DC0004BF6FF70ADF80A004020ADF80C00000182
:103DD000ADF80E000001ADF810000E480190012171
:103DE0000D4800F021F801A90B4800F053F801221A
:103DF0005102094800F044F801229102064800F0FF
:103E00003FF801221102044800F03AF807B000BD63
:103E1000000C0140A086010000540040002221F067
:103E20007F42D3438382704721B1028842F001026E
:103E3000028004E002884FF6FE731A400280704749
:103E400030B5024600200023948801F0E06504EAC2
:103E5000154321F07F41948A0C4014B10BB101202D
:103E600000E0002030BD10B50146002000230022F4
:103E70008B8A0A8B120443EA020424F07F4010BDAF
:103E80001AB183880B43838002E083888B4383804D
:103E9000704700002DE9F04385B004460D4600262A
:103EA000B1460427DFF8CC80A6884FF6C0700640E4
:103EB000684601F071FADDF808802F48B8FBF0F091
:103EC0001FFA80F946EA0906A68020884FF6FE719F
:103ED0000840208000262949286888420CD8286894
:103EE0004000B8FBF0F087B2042F00DA04273E430D
:103EF00009F10100208427E0E8884BF6FF71884231
:103F000006D1286800EB4000B8FBF0F087B209E06A
:103F1000286800EBC00101EB0010B8FBF0F087B29D
:103F200047F48047C7F30B0008B947F0010747F48F
:103F3000004006434FF4967009FB00F04FF47A718D
:103F400090FBF1F0401C2084A683208840F0010003
:103F5000208026884FF6F5300640A88869890843F6
:103F600006432680A88929890843208105B0BDE839
:103F7000F083000000127A0040420F00A08601008A
:103F80000146088AC0B270470182704772B6704716
:103F900062B67047054B10B502EB02121B68D2B235
:103FA000984703490968084010BD0000C802002076
:103FB0005C02002002490A68086010467047000051
:103FC0005C02002070B5044600268C4805884088B5
:103FD000454310218A48FDF7C3F808218848FDF7BA
:103FE000BFF800BF8748008900F002000028F9D020
:103FF0008248C0798349888100BF8248008900F0E7
:1040000001000028F9D07F48808910217C48FDF705
:10401000A9F810217A48FDF7A3F808217848FDF7A0
:10402000A1F800BF7748008900F002000028F9D00D
:1040300000207449888100BF7248008900F00100A7
:104040000028F9D06F48808910216D48FDF78AF863
:1040500010216B48FDF784F808216948FDF782F8C4
:1040600000BF6848008900F002000028F9D0002055
:104070006449888100BF6348008900F0010000287E
:10408000F9D06048808910215D48FDF76BF8102158
:104090005B48FDF765F808215948FDF761F800BF56
:1040A0005848008900F002000028F9D05348007AEF
:1040B0005449888100BF5348008900F0010000285E
:1040C000F9D05048808910214D48FDF74BF8102158
:1040D0004B48FDF745F808214948FDF743F800BF74
:1040E0004848008900F002000028F9D00020454926
:1040F000888100BF4348008900F001000028F9D002
:104100004048808910213E48FDF72CF810213C489A
:10411000FDF726F808213A48FDF724F800BF394892
:10412000008900F002000028F9D00020354988817C
:1041300000BF3448008900F001000028F9D0314860
:10414000808910212E48FDF70DF810212C48FDF72D
:1041500007F808212A48FDF703F800BF294800891D
:1041600000F002000028F9D0244880792549888190
:1041700000BF2448008900F001000028F9D0214840
:10418000808910211E48FCF7EDFF002632E0102147
:104190001B48FCF7E5FF08211948FCF7E3FF00BFC7
:1041A0001848008900F002000028F9D020121549B3
:1041B000888100BF1348008900F001000028F9D071
:1041C0001048808900BF0F48008900F002000028D5
:1041D000F9D0E0B20B49888100BF0A48008900F09D
:1041E00001000028F9D00748808910210448FCF715
:1041F000B9FF761CAE42CAD370BD0000F8030020A0
:1042000000080140003001400449054A0968497C22
:1042100052F82110096909680847000014020020BB
:104220002C0200202DE9F04F05468DB07C48DDF8CA
:1042300060901A9C00681E4617464FF0000A78B13D
:104240001B9B199ACDF808900593CDE90324DDE96D
:104250001623CDE90023046833463A46284682E017
:10426000DDE9160201EB060805EB070C1043A8F187
:104270000108ACF1010C012806D0C9F10800059035
:10428000002002910890C8E066480268B2F90A303E
:10429000581A002806DD361A002E65DD1946199BCE
:1042A00000FB0344B2F90E00A8EB0000002802DD79
:1042B000361A002E58DDB2F90C00ACEB00000028D5
:1042C00000DD3F1AB2F908300020AB4237DD581B41
:1042D0003F1A4B46B9F1080F28D007DC012B0DD04F
:1042E000022B13D0B9F1040F29D117E0102B1FD0E6
:1042F000182B20D0B9F1200F21D11CE020F00703AA
:1043000004EBE0041D4400F0070018E020F0030374
:1043100004EBA0041D4400F0030010E020F00103B2
:1043200004EB60041D4400F0010008E0044404E0D4
:1043300004EB400401E004EB800405440020002F5E
:1043400012DD1B9BDDF864C0CDE90403CDE902C496
:10435000CDE90069527C34483B4650F82200C268DF
:1043600054680A462946A0470DB0BDE8F08F17995A
:104370000298084409902B49401E00900A68B2F93F
:104380000A30834241DCB2F90E10029881423CDBD4
:104390004FF0000BD84603950B9434E0BBF1000FAF
:1043A00005D10B984FF0080B10F801AB0B90059955
:1043B000ABEB090B3AFA01F00AFA09F101F0FF0A36
:1043C00004D118490968097C890716D41549096878
:1043D000C96B0A680C921B9A0AB152F82000086057
:1043E00016990398009B4218521E029900F0A8F8F3
:1043F0000C490C980968C96B08600399169808F174
:10440000010808440390B845C8DB0898401C089090
:1044100009980290199804440898B042A7DBA3E7D2
:1044200040020020140200202C020020F0B40C46B0
:1044300012490968B1F90A30A3421CDCB1F90E3007
:10444000A34218DBB1F90830834200DD1846B1F908
:104450000C30934200DA1A4682420CDB4B7C08494E
:1044600051F8235013462246E9688E6801462846D3
:10447000B446F0BC6047F0BC704700001402002056
:104480002C0200200A46174930B40968B1F90A30F5
:10449000934225DCB1F90E30934221DBB1F90830AB
:1044A00083421DDCB1F90C30834219DB0B7C0E4CCE
:1044B000DB0709D0497C54F82130D968CC69014622
:1044C000A44630BC18466047CB6B497C1B6854F847
:1044D0002140E1688D6901462046AC4630BC60470A
:1044E00030BC7047140200202C020020124B30B464
:1044F0001B68B3F9084084421CDCB3F90C408442C9
:1045000018DBB3F90A408C4200DD2146B3F90E40B6
:10451000944200DA22468A420CDB5C7C074B53F85B
:104520002440E368DD6813460A4601462046AC464F
:1045300030BC604730BC7047140200202C020020C1
:1045400038B5134C2468B4F90850854200DD28467C
:10455000B4F90C50954200DA2A46824217DBB4F9CE
:104560000A508D4200DD2946B4F90E509D4200DA12
:104570002B468B420BDB0093647C064B53F82440A4
:10458000E3681D6913460A4601462046A84738BD20
:10459000140200202C020020082105F085B800003C
:1045A00002480068806B0068704700001402002019
:1045B00002480068C06B00687047000014020020C9
:1045C000024809210068407C05F06EB81402002002
:1045D000092105F069B870B500252C462046FDF785
:1045E0009FFA00B16D1C641C022CF7DB284670BDDD
:1045F00002480068407C00F003B80000140200206C
:1046000010B5FDF78DFA002805D0C168CA6ABDE86B
:1046100010400221104710BD10B500F005F8BDE8AC
:10462000104000F071B800002DE9FC41144E054621
:10463000144F30680C46407C57F82000C1680A6B64
:1046400069469047BDF90000A8420BDCBDF90400A3
:10465000A84207DBBDF90200A04203DCBDF9060059
:10466000A04202DA0020BDE8FC8130682246407C8E
:1046700057F82000C1684B6929469847F3E70000C6
:10468000140200202C020020032105F00DB80320A5
:1046900005F04EB8042105F007B8000002480121DA
:1046A0000068407C05F000B8140200200248022196
:1046B0000068407C04F0F8BF14020020AFF30080D3
:1046C0002DE9F041002809D0876837B10D4E716897
:1046D00019B10468B4F5807F02DD0020BDE8F081E7
:1046E0003068844200DD0446002507E057F82500C5
:1046F000FFF78AFD716841F825006D1CA542F5DBC6
:104700007068EBE7600200200449054A0968497CAB
:1047100052F8211009694968084700001402002076
:104720002C0200207047704710B500F01F01074AA7
:10473000074BC0F34514C0F3C4201B5D105C515CF3
:1047400000EB032000EB014010BD0000B81C010885
:10475000D81C010810B500F0F3FE0221AB48FCF7AD
:10476000FFFC142006F008FF0221A848FCF7FAFC21
:10477000142006F001FFF020A54908804FF4A07036
:1047800048802C2088712A20C8712B2008720121B2
:10479000002000F0F9FB322006F0EEFE002000F0D1
:1047A00095FA9B498880D32000F0D6FB00F0A8F949
:1047B00000F0A6F900F0A4F99549888008468088A1
:1047C0004FF6FF7101EA00209149888000F098F9C6
:1047D0008F49898808438E498880CF2000F0BCFB30
:1047E000002000F0A1FBD92000F09EFB302000F05B
:1047F0009BFBED2000F0B0FB642000F095FB032054
:1048000000F092FB122000F08FFB812000F08CFB67
:10481000E82000F0A1FB852000F086FB102000F0CE
:1048200083FB782000F080FBCB2000F095FB392043
:1048300000F07AFB2C2000F077FB002000F074FBE6
:10484000342000F071FB022000F06EFBF72000F036
:1048500083FB202000F068FBEA2000F07DFB0020B5
:1048600000F062FB002000F05FFBC02000F074FB52
:10487000212000F059FBC12000F06EFB122000F057
:1048800053FBC52000F068FB322000F04DFB3C20BC
:1048900000F04AFBC72000F05FFBC12000F044FBA2
:1048A000362000F059FBA82000F03EFB2B2000F042
:1048B00053FB002000F038FB002000F035FB002007
:1048C00000F032FBEF2000F02FFB2A2000F044FB29
:1048D000002000F029FB002000F026FB012000F062
:1048E00023FB3F2000F020FB3A2000F035FB552051
:1048F00000F01AFBB12000F02FFB002000F014FBA9
:10490000182000F011FBB62000F026FB0A2000F072
:104910000BFBA22000F008FBF22000F01DFB0020A2
:1049200000F002FB262000F017FB012000F0FCFA4B
:10493000E02000F011FB0F2000F0F6FA202000F03C
:10494000F3FA1E2000F0F0FA092000F0EDFA122030
:1049500000F0EAFA0B2000F0E7FA502000F0E4FA49
:10496000BA2000F0E1FA442000F0DEFA092000F05D
:10497000DBFA142000F0D8FA052000F0D5FA232045
:1049800000F0D2FA212000F0CFFA002000F0CCFA9B
:10499000E12000F0E1FA002000F0C6FA192000F052
:1049A000C3FA192000F0C0FA002000F0BDFA12206E
:1049B00000F0BAFA072000F0B7FA2D2000F0B4FAA0
:1049C000282000F0B1FA3F2000F0AEFA022000F0FB
:1049D000ABFA0A2000F0A8FA082000F0A5FA25207A
:1049E00000F0A2FA2D2000F09FFA0F2000F09CFAB0
:1049F000112000F0B1FA782006F0BEFD292000F069
:104A0000ABFA4FF6FF70FFF7DDFA10BD000C014066
:104A1000F803002010B50A4C606860B92068800077
:104A2000FCF744FE606040B104F1080105480860ED
:104A30000846FEF7B9FF002010BD012010BD0000A0
:104A400060020020E59B00082DE9F041FFF7C3FD5F
:104A50000746002528E02846FDF762F818B32846E7
:104A6000FDF7E6FF80462846FFF796FD082817DC8D
:104A70000F48104950F825000069884210D0284698
:104A8000FFF7A6FD0646002408E0E0B2FFF73CFE73
:104A90000246E1B2284600F093F9641CB442F4DB0C
:104AA0004046FDF7C5FF6D1CBD42D4DBBDE8F0817B
:104AB0002C0200206C1D010870B500250024102177
:104AC0000D48FCF74DFB08210B48FCF74BFB002180
:104AD0000A4800F0DBFD05460021084800F0D6FD3D
:104AE000044610210448FCF73DFB04F1080005FAD8
:104AF00000F080B270BD00000008014000300140AD
:104B000010B5002410210948FCF72AFB08210748AA
:104B1000FCF728FB0021064800F0B8FD04461021F0
:104B20000248FCF71FFB204610BD000000080140B2
:104B3000003001402DE9FF4F83B01646DDE91040FB
:104B40008B46C0684769426A7AB1012111A8904733
:104B500005000AD00698CDE9000433465A46039969
:104B60001198A84707B0BDE8F08F57480068407C0F
:104B7000FDF75AFA8246082801DC012005E0BAF167
:104B8000100F01DC022000E004208046002596E0A2
:104B90004046B8F1010F05D0022871D0B8F1040FDA
:104BA00025D17CE0BAF1090F21D2DFE80AF08605B1
:104BB000213F3F5959595900039815E001465A467B
:104BC0001198B847C5F1070188404FF67F722178E8
:104BD000EA40114001436D1C217004EBE50425F00F
:104BE0000700054109F101008146B042E6DD64E0BD
:104BF000039817E001465A461198B8470621A1EBE1
:104C0000450188406B004FF63F722178DA40114031
:104C100001436D1C217004EBA50425F00300054140
:104C200009F101008146B042E4DD46E0039813E05B
:104C300001465A461198B8470421A1EB85018840E6
:104C40002178AB000F229A401140014321702C447F
:104C500085F0010509F101008146B042E8DD2CE054
:104C6000DDF80C9007E001465A461198B8472070CD
:104C700009F1010944444846B145F4DD1DE0FFE770
:104C8000DDF80C9007E001465A461198B84720809D
:104C900009F1010944444846B145F4DD0DE0DDF871
:104CA0000C9007E001465A461198B847206009F178
:104CB000010944444846B145F4DD0BF1010B069966
:104CC0008B457FF765AF4DE71402002010B5044611
:104CD000204600F041F9FFF7EFFE10BD10B50E4C75
:104CE0000E492068407C51F8200050B1C168096825
:104CF000042903D000680028F8D102E008B1FCF7CD
:104D00000DFF20680021016600F108014161BDE846
:104D1000104000F02FB80000140200202C020020E8
:104D20000149096849680847580200200449096890
:104D30000A7C520701D5C96B00E0896B0860704797
:104D4000140200207CB5094C05462068417C0848C7
:104D500050F82100C1680A6B6946904720686A468E
:104D600029460830FEF741FD7CBD000014020020FA
:104D70002C0200200448016804484A7C083150F89D
:104D80002200C268126B1047140200202C0200207F
:104D90000149096809680847580200200449096860
:104DA0000A7C520701D5896B00E0C96B0860704727
:104DB0001402002001490968896808475802002048
:104DC000F8B515460E460124FCF7AAFE009058B12E
:104DD000C0681021426A68469047030004D02A4602
:104DE00031460098984700242046F8BD2DE9F04749
:104DF00017000C46054636D01C490868B0F90A2051
:104E0000A24230DCB0F90E20A2422CDBB0F908201F
:104E1000AA4228DCB0F90C20AA4224DB144E0F2F42
:104E200002D3C16B0B6813E0C06B88460068FFF7C4
:104E30006BFC814621462846FFF7EEFB01463A46C9
:104E40004846FFF7A7F8FFF7DFF90346D8F8000058
:104E50002246407C56F82000C1688E692946B44637
:104E6000BDE8F0476047BDE8F0870000140200206D
:104E70002C020020F8B515460E460124FCF750FE22
:104E8000009058B1C0680B21426A68469047030001
:104E900004D02A4631460098984700242046F8BDA1
:104EA000F8B515460E460124FCF73AFE009058B1BD
:104EB000C0680A21426A68469047030004D02A4627
:104EC00031460098984700242046F8BD10B5074C9D
:104ED0002068006BFFF798F9FFF760FF2068406BD0
:104EE000FFF792F9BDE81040FFF720BF1402002041
:104EF00010B5044610210A48FCF732F90821084889
:104F0000FCF730F92112074800F0C0FBE1B2054878
:104F100000F0BCFB10210248FCF724F910BD000092
:104F2000000801400030014010B504461021084837
:104F3000FCF716F908210648FCF714F92146054844
:104F400000F0A4FB10210248FCF70CF910BD000092
:104F5000000801400030014010B504461021084807
:104F6000FCF7FEF808210648FCF7FAF8E1B205481C
:104F700000F08CFB10210248FCF7F4F810BD000093
:104F8000000801400030014070B505460C46284637
:104F9000FFF7E2FF2046FFF7ABFF70BD10B500231F
:104FA0001A4609490948FCF763FD0446F0224FF40C
:104FB000A0710020FFF75EFFF0224FF4A0710020E7
:104FC000FFF76EFF10BD00003CC8000800C70008D6
:104FD00010B503461446012901D1002010BD4FF041
:104FE000FF3200BF00BF1046F8E700002DE9FF4F79
:104FF0008DB01746674ADDF870901E9E20981268A3
:105000001D4600248AB11D9B1F98CDE90293CDE96E
:105010000460DDE91A03CDE9000314682B463A4623
:105020000D98A04711B0BDE8F08F0D9A01EB05086F
:1050300002EB070CDDE91A231A43A8F10108ACF1D1
:10504000010C012A06D0C9F108004FF0000B0291B3
:1050500005909CE0504A1268B2F90A40631A002B8E
:1050600006DDED1A002DDDDD21461D9C03FB0466E7
:10507000B2F90E30A8EB0303002B02DDED1A002D70
:10508000D0DDB2F90C30ACEB0303002B00DDFF1ACE
:105090000D9B1C1AB2F90830A3420DDDA3EB040CE2
:1050A0000CEB0003181A20F007000444A7EB0C07D0
:1050B00006EBE30603F00700002FB3DD1F9BDDF8CE
:1050C00074C0CDE9040303968DE82012527C334866
:1050D0003B4650F82200C26855680A462146A84758
:1050E000A0E71B990298084409902B49401E0390A1
:1050F0000A68B2F90A30834243DCB2F90E10029812
:1051000081423EDB4FF0000A0D980B96D04600908E
:1051100035E000BFBAF1000F05D10B984FF0080A37
:1051200010F8014B0B900599AAEB090A34FA01F02B
:1051300004FA09F4E4B204D117490968097C890723
:1051400017D415490968C96B0A680C921F9A0AB1ED
:1051500052F82000086000991A980A180846DDE9FC
:105160000213521EFFF7ECF90B490C980968C96B42
:10517000086000991A9808F1010808440090B845A1
:10518000C8DB099802901D980BF1010B0644AB4552
:10519000A7DB47E740020020140200202C02002079
:1051A000002818D0410817D0810817D0C10817D09F
:1051B000010917D0410917D0010A17D0410A17D0A9
:1051C000010B15D0C10B13D0010C11D0810C11D0E3
:1051D000000E11D020207047012070470220704738
:1051E000032070470420704705207047082070474F
:1051F00010207047122070471820704700B5002219
:10520000FFF7CEFF012804D0811E062903D808220B
:105210000BE0012209E0A0F10901072901D81022C1
:1052200003E011380F2800D82022104600BD00BF2F
:10523000FEE7704710B54FF4A06000F039F810BDDC
:1052400070B5002100230F22C47804B3154C2468E4
:1052500004F4E064C4F5E064210AC1F10403CA4027
:10526000447804FA03F184781440214309010E4C78
:105270000678A155047804F01F050124AC40057898
:105280006D11AD0005F1E025C5F8004109E0047895
:1052900004F01F050124AC40044D0678761145F852
:1052A000264070BD0CED00E000E400E080E100E08D
:1052B00002490143024A1160704700000000FA05EC
:1052C0000CED00E008B50121082000F045F84FF48E
:1052D0008060ADF8000010208DF8030003208DF8E9
:1052E000020069460448FBF7A7FE4FF480610248BC
:1052F000FBF736FF08BD0000000C014070470000BE
:1053000001460020034A506820F4404008435060A2
:10531000704700000010024029B1064A526902435A
:10532000044B5A6104E0034A52698243014B5A61BB
:10533000704700000010024029B1064AD2690243BA
:10534000044BDA6104E0034AD2698243014BDA611B
:10535000704700000010024029B1064A92690243DA
:10536000044B9A6104E0034A92698243014B9A61BB
:10537000704700000010024029B1064AD26802437B
:10538000044BDA6004E0034AD2688243014BDA60DE
:10539000704700000010024030B5002100220024B8
:1053A00000232D4D6D6805F00C0121B1042905D0B5
:1053B000082923D105E0294D056022E0274D05602D
:1053C0001FE0254D6D6805F47012234D6D6805F4DE
:1053D0008034022505EB92421CB9214D55430560EE
:1053E0000BE01D4D6D6805F400351DB11C4D554396
:1053F000056002E0194D5543056002E0174D056058
:1054000000BF00BF144D6D6805F0F0010909154D8E
:105410006B5C0568DD4045600F4D6D6805F4E0612B
:10542000090A104D6B5C4568DD4085600A4D6D686A
:1054300005F46051C90A0B4D6B5C4568DD40C560E1
:10544000054D6D6805F44041890B074D6B5CC568DF
:10545000B5FBF3F5056130BD0010024000127A0083
:1054600000093D0034000020440000202DE9F043F5
:1054700089B005460C46914625B1012D2CD0022D50
:1054800051D146E02A490968C96908688047284817
:105490000068C069416804A8884726A207CA01AB12
:1054A00007C3BDF8190000128DF806009DF8190019
:1054B0008DF80700BDF81B0000128DF808009DF85C
:1054C0001B008DF809009DF81D008DF80A000921C8
:1054D00001A8FEF72FFC26E02678A77894F8048030
:1054E00013480068C069416804A88847ADF819608E
:1054F000ADF81B708DF81D80BDF82000ADF80000E0
:105500000B480068C069D0F808C004A80FC8E0477D
:1055100009E02678A77806480068C0693946C2685D
:105520003046904700BF00BF09B0BDE8F0830000DF
:1055300000000020A5050000000000FF00000000A2
:1055400000B587B001210820FFF706FF01210420E4
:10555000FFF702FF01210803FFF7FEFEA020ADF8D0
:10556000180018208DF81B0003208DF81A0006A9DA
:105570002E48FBF761FD1020ADF8180003208DF8D0
:105580001A0010208DF81B0006A92848FBF754FDCF
:1055900010212648FBF7E4FD0820ADF81800032091
:1055A0008DF81A0010208DF81B0006A91F48FBF784
:1055B00043FD08211D48FBF7D3FD0320ADF818007B
:1055C0008DF81A0010208DF81B0006A91848FBF76B
:1055D00033FD02211648FBF7C3FD01211448FBF7F8
:1055E000C1FD0020ADF804004FF48270ADF8060054
:1055F0000020ADF808000220ADF80A000120ADF847
:105600000C004002ADF80E000020ADF81000ADF81F
:1056100012000720ADF8140001A9064800F018F8A0
:105620000121044800F008F807B000BD000801405F
:10563000000C01400030014021B1028842F04002DC
:10564000028004E002884FF6BF731A400280704760
:1056500010B50022028802F441520B884C88234383
:105660008C882343CC8823430C8923434C892343D0
:105670008C892343CC8923431A430280838B4FF2C6
:10568000FF74234083830B8A038210BD024600BF50
:10569000108900F002000028FAD0918100BF108923
:1056A00000F001000028FAD09089C0B2704770471E
:1056B00000B58BB0AC480078012855D16FF07F4021
:1056C000FDF7CCF90220FDF701FAA848FDF7D0F963
:1056D00003221146A6A0FCF729FBDB220521A6A088
:1056E000FCF724FBDB225A21A5A0FCF71FFBDB22E1
:1056F000B921A5A0FCF71AFBDB22FA21A3A0FCF735
:1057000015FB05234FF487720821A248FCF7F4FB30
:105710000120FDF7DBF90120FDF7B4F919234FF45F
:10572000A07219460020FCF7CBFBD6234FF4A072E1
:1057300019460020FCF7C4FB9748FDF78FF90A20B3
:10574000FBF764FF0F20D2234FF49B721E210090C1
:105750000A20FBF787FE0220FDF7CAF90020FDF7BB
:105760007DF90020804908706FF07F40FDF776F9E1
:105770008A488B4905223823CDE9002102904FF455
:10578000967221211420FCF763FB2222192185A0A7
:10579000FCF7CCFA874909680968C86880470A900D
:1057A00022219120FCF79CFCBDF828000421FCF785
:1057B00005FA7A487A4905225123CDE90021029061
:1057C0004FF496723A211420FCF742FB3B22192138
:1057D00079A0FCF7ABFA774909684968C86880473F
:1057E00009903B219120FCF77BFC08210998FCF7EC
:1057F00003FA6A486A4905226A23CDE9002102902A
:105800004FF4967253211420FCF722FB54221921E5
:105810006CA0FCF78BFA674909688968C8688047FB
:10582000089054219120FCF75BFCBDF82000042176
:10583000FCF7C4F959485A4905228323CDE90021D0
:1058400002904FF496726C211420FCF701FB6D223C
:1058500019215EA0FCF76AFA6D2264215DA0FCF7B5
:1058600065FA6D22C8215DA0FCF760FA514909680C
:10587000C968C868804707906D219B20FCF730FC01
:10588000BDF81C000221FCF799F96D21FA20FCF704
:1058900027FCBDF81E000221FCF790F93F48404963
:1058A00005229C23CDE9002102904FF496728521B8
:1058B0001420FCF7CDFA862219214AA0FCF736FA0B
:1058C0003C4909680969C86880470690862191208B
:1058D000FCF706FCBDF818000121FCF76FF92F4812
:1058E0002F490522B523CDE9002102904FF496728D
:1058F0009E211420FCF7ACFA9F2219213BA0FCF753
:1059000015FA2C4909684969C868804705909F21A4
:105910009120FCF7E5FBBDF814000421FCF74EF9DB
:105920001E481F490522CE23CDE9002102904FF4E5
:105930009672B7211420FCF78BFAB82219212FA0F8
:10594000FCF7F4F91B4909688969C8688047049025
:10595000B8219120FCF7C4FBBDF810000121FCF731
:105960002DF90BB000BD0000140000204CD8000839
:1059700053656E736F7273004E45585400000000FB
:105980004241434B000000004F4B000043414E4357
:10599000454C000068C60008D3D3D300B0B0FF0068
:1059A0007070FF0049525F44697374616E63653AB9
:1059B000000000000000002049525F52656D6F74C6
:1059C000653A00005052533A0000000044485431F8
:1059D000313A000054656D703A00000048756D69F9
:1059E0003A0000005049523A00000000506F7465C0
:1059F0006E74696F6D657465723A00004C61726710
:105A0000655F4B65793A000010B500F001F810BDF4
:105A10000CB50020019000903348006840F48030BD
:105A20003149086000BF3048006800F40030009041
:105A30000198401C0190009818B90198B0F5A06F2A
:105A4000F1D12948006800F4003010B10120009025
:105A500001E0002000900098012843D1234800680D
:105A600040F01000214908600846006820F003005B
:105A700008600846006840F0020008601A48406864
:105A8000194948600846406848600846406840F444
:105A9000806048600846406820F47C1048600846F2
:105AA000406840F4E81048600846006840F08070A4
:105AB000086000BF0C48006800F000700028F9D0B2
:105AC0000948406820F003000749486008464068DC
:105AD00040F00200486000BF0348406800F00C003E
